{
  "_format": "hh-sol-artifact-1",
  "contractName": "RealEstatePlatform",
  "sourceName": "contracts/proplist.sol",
  "abi": [
    {
      "inputs": [],
      "stateMutability": "nonpayable",
      "type": "constructor"
    },
    {
      "inputs": [
        {
          "internalType": "address",
          "name": "sender",
          "type": "address"
        },
        {
          "internalType": "uint256",
          "name": "tokenId",
          "type": "uint256"
        },
        {
          "internalType": "address",
          "name": "owner",
          "type": "address"
        }
      ],
      "name": "ERC721IncorrectOwner",
      "type": "error"
    },
    {
      "inputs": [
        {
          "internalType": "address",
          "name": "operator",
          "type": "address"
        },
        {
          "internalType": "uint256",
          "name": "tokenId",
          "type": "uint256"
        }
      ],
      "name": "ERC721InsufficientApproval",
      "type": "error"
    },
    {
      "inputs": [
        {
          "internalType": "address",
          "name": "approver",
          "type": "address"
        }
      ],
      "name": "ERC721InvalidApprover",
      "type": "error"
    },
    {
      "inputs": [
        {
          "internalType": "address",
          "name": "operator",
          "type": "address"
        }
      ],
      "name": "ERC721InvalidOperator",
      "type": "error"
    },
    {
      "inputs": [
        {
          "internalType": "address",
          "name": "owner",
          "type": "address"
        }
      ],
      "name": "ERC721InvalidOwner",
      "type": "error"
    },
    {
      "inputs": [
        {
          "internalType": "address",
          "name": "receiver",
          "type": "address"
        }
      ],
      "name": "ERC721InvalidReceiver",
      "type": "error"
    },
    {
      "inputs": [
        {
          "internalType": "address",
          "name": "sender",
          "type": "address"
        }
      ],
      "name": "ERC721InvalidSender",
      "type": "error"
    },
    {
      "inputs": [
        {
          "internalType": "uint256",
          "name": "tokenId",
          "type": "uint256"
        }
      ],
      "name": "ERC721NonexistentToken",
      "type": "error"
    },
    {
      "inputs": [
        {
          "internalType": "address",
          "name": "owner",
          "type": "address"
        }
      ],
      "name": "OwnableInvalidOwner",
      "type": "error"
    },
    {
      "inputs": [
        {
          "internalType": "address",
          "name": "account",
          "type": "address"
        }
      ],
      "name": "OwnableUnauthorizedAccount",
      "type": "error"
    },
    {
      "anonymous": false,
      "inputs": [
        {
          "indexed": true,
          "internalType": "address",
          "name": "owner",
          "type": "address"
        },
        {
          "indexed": true,
          "internalType": "address",
          "name": "approved",
          "type": "address"
        },
        {
          "indexed": true,
          "internalType": "uint256",
          "name": "tokenId",
          "type": "uint256"
        }
      ],
      "name": "Approval",
      "type": "event"
    },
    {
      "anonymous": false,
      "inputs": [
        {
          "indexed": true,
          "internalType": "address",
          "name": "owner",
          "type": "address"
        },
        {
          "indexed": true,
          "internalType": "address",
          "name": "operator",
          "type": "address"
        },
        {
          "indexed": false,
          "internalType": "bool",
          "name": "approved",
          "type": "bool"
        }
      ],
      "name": "ApprovalForAll",
      "type": "event"
    },
    {
      "anonymous": false,
      "inputs": [
        {
          "indexed": false,
          "internalType": "uint256",
          "name": "_fromTokenId",
          "type": "uint256"
        },
        {
          "indexed": false,
          "internalType": "uint256",
          "name": "_toTokenId",
          "type": "uint256"
        }
      ],
      "name": "BatchMetadataUpdate",
      "type": "event"
    },
    {
      "anonymous": false,
      "inputs": [
        {
          "indexed": true,
          "internalType": "uint256",
          "name": "propertyId",
          "type": "uint256"
        },
        {
          "indexed": true,
          "internalType": "address",
          "name": "owner",
          "type": "address"
        }
      ],
      "name": "DeListProperty",
      "type": "event"
    },
    {
      "anonymous": false,
      "inputs": [
        {
          "indexed": false,
          "internalType": "uint256",
          "name": "_tokenId",
          "type": "uint256"
        }
      ],
      "name": "MetadataUpdate",
      "type": "event"
    },
    {
      "anonymous": false,
      "inputs": [
        {
          "indexed": true,
          "internalType": "address",
          "name": "previousOwner",
          "type": "address"
        },
        {
          "indexed": true,
          "internalType": "address",
          "name": "newOwner",
          "type": "address"
        }
      ],
      "name": "OwnershipTransferred",
      "type": "event"
    },
    {
      "anonymous": false,
      "inputs": [
        {
          "indexed": true,
          "internalType": "uint256",
          "name": "propertyId",
          "type": "uint256"
        },
        {
          "indexed": true,
          "internalType": "address",
          "name": "buyer",
          "type": "address"
        },
        {
          "indexed": false,
          "internalType": "uint256",
          "name": "amount",
          "type": "uint256"
        }
      ],
      "name": "PaymentDeposited",
      "type": "event"
    },
    {
      "anonymous": false,
      "inputs": [
        {
          "indexed": true,
          "internalType": "uint256",
          "name": "propertyId",
          "type": "uint256"
        },
        {
          "indexed": true,
          "internalType": "address",
          "name": "seller",
          "type": "address"
        },
        {
          "indexed": false,
          "internalType": "uint256",
          "name": "amount",
          "type": "uint256"
        }
      ],
      "name": "PaymentWithdrawn",
      "type": "event"
    },
    {
      "anonymous": false,
      "inputs": [
        {
          "indexed": true,
          "internalType": "uint256",
          "name": "propertyId",
          "type": "uint256"
        },
        {
          "indexed": true,
          "internalType": "address",
          "name": "buyer",
          "type": "address"
        },
        {
          "indexed": false,
          "internalType": "uint256",
          "name": "price",
          "type": "uint256"
        }
      ],
      "name": "PropertyBought",
      "type": "event"
    },
    {
      "anonymous": false,
      "inputs": [
        {
          "indexed": true,
          "internalType": "uint256",
          "name": "propertyId",
          "type": "uint256"
        },
        {
          "indexed": true,
          "internalType": "address",
          "name": "owner",
          "type": "address"
        },
        {
          "indexed": false,
          "internalType": "uint256",
          "name": "price",
          "type": "uint256"
        }
      ],
      "name": "PropertyListed",
      "type": "event"
    },
    {
      "anonymous": false,
      "inputs": [
        {
          "indexed": true,
          "internalType": "address",
          "name": "from",
          "type": "address"
        },
        {
          "indexed": true,
          "internalType": "address",
          "name": "to",
          "type": "address"
        },
        {
          "indexed": true,
          "internalType": "uint256",
          "name": "tokenId",
          "type": "uint256"
        }
      ],
      "name": "Transfer",
      "type": "event"
    },
    {
      "inputs": [
        {
          "internalType": "string",
          "name": "description",
          "type": "string"
        },
        {
          "internalType": "string",
          "name": "ipfsHash",
          "type": "string"
        },
        {
          "internalType": "uint256",
          "name": "price",
          "type": "uint256"
        }
      ],
      "name": "ListingProp",
      "outputs": [],
      "stateMutability": "nonpayable",
      "type": "function"
    },
    {
      "inputs": [
        {
          "internalType": "address",
          "name": "to",
          "type": "address"
        },
        {
          "internalType": "uint256",
          "name": "tokenId",
          "type": "uint256"
        }
      ],
      "name": "approve",
      "outputs": [],
      "stateMutability": "nonpayable",
      "type": "function"
    },
    {
      "inputs": [
        {
          "internalType": "address",
          "name": "owner",
          "type": "address"
        }
      ],
      "name": "balanceOf",
      "outputs": [
        {
          "internalType": "uint256",
          "name": "",
          "type": "uint256"
        }
      ],
      "stateMutability": "view",
      "type": "function"
    },
    {
      "inputs": [
        {
          "internalType": "uint256",
          "name": "propertyId",
          "type": "uint256"
        }
      ],
      "name": "buyProp",
      "outputs": [],
      "stateMutability": "payable",
      "type": "function"
    },
    {
      "inputs": [
        {
          "internalType": "uint256",
          "name": "propertyId",
          "type": "uint256"
        }
      ],
      "name": "delistProp",
      "outputs": [],
      "stateMutability": "nonpayable",
      "type": "function"
    },
    {
      "inputs": [
        {
          "internalType": "uint256",
          "name": "tokenId",
          "type": "uint256"
        }
      ],
      "name": "getApproved",
      "outputs": [
        {
          "internalType": "address",
          "name": "",
          "type": "address"
        }
      ],
      "stateMutability": "view",
      "type": "function"
    },
    {
      "inputs": [],
      "name": "getProperties",
      "outputs": [
        {
          "components": [
            {
              "internalType": "uint256",
              "name": "id",
              "type": "uint256"
            },
            {
              "internalType": "address",
              "name": "owner",
              "type": "address"
            },
            {
              "internalType": "string",
              "name": "description",
              "type": "string"
            },
            {
              "internalType": "string",
              "name": "ipfsHash",
              "type": "string"
            },
            {
              "internalType": "uint256",
              "name": "price",
              "type": "uint256"
            },
            {
              "internalType": "bool",
              "name": "isListed",
              "type": "bool"
            }
          ],
          "internalType": "struct RealEstatePlatform.Property[]",
          "name": "",
          "type": "tuple[]"
        }
      ],
      "stateMutability": "view",
      "type": "function"
    },
    {
      "inputs": [
        {
          "internalType": "address",
          "name": "owner",
          "type": "address"
        },
        {
          "internalType": "address",
          "name": "operator",
          "type": "address"
        }
      ],
      "name": "isApprovedForAll",
      "outputs": [
        {
          "internalType": "bool",
          "name": "",
          "type": "bool"
        }
      ],
      "stateMutability": "view",
      "type": "function"
    },
    {
      "inputs": [],
      "name": "name",
      "outputs": [
        {
          "internalType": "string",
          "name": "",
          "type": "string"
        }
      ],
      "stateMutability": "view",
      "type": "function"
    },
    {
      "inputs": [],
      "name": "owner",
      "outputs": [
        {
          "internalType": "address",
          "name": "",
          "type": "address"
        }
      ],
      "stateMutability": "view",
      "type": "function"
    },
    {
      "inputs": [
        {
          "internalType": "uint256",
          "name": "tokenId",
          "type": "uint256"
        }
      ],
      "name": "ownerOf",
      "outputs": [
        {
          "internalType": "address",
          "name": "",
          "type": "address"
        }
      ],
      "stateMutability": "view",
      "type": "function"
    },
    {
      "inputs": [
        {
          "internalType": "uint256",
          "name": "",
          "type": "uint256"
        }
      ],
      "name": "properties",
      "outputs": [
        {
          "internalType": "uint256",
          "name": "id",
          "type": "uint256"
        },
        {
          "internalType": "address",
          "name": "owner",
          "type": "address"
        },
        {
          "internalType": "string",
          "name": "description",
          "type": "string"
        },
        {
          "internalType": "string",
          "name": "ipfsHash",
          "type": "string"
        },
        {
          "internalType": "uint256",
          "name": "price",
          "type": "uint256"
        },
        {
          "internalType": "bool",
          "name": "isListed",
          "type": "bool"
        }
      ],
      "stateMutability": "view",
      "type": "function"
    },
    {
      "inputs": [],
      "name": "renounceOwnership",
      "outputs": [],
      "stateMutability": "nonpayable",
      "type": "function"
    },
    {
      "inputs": [
        {
          "internalType": "address",
          "name": "from",
          "type": "address"
        },
        {
          "internalType": "address",
          "name": "to",
          "type": "address"
        },
        {
          "internalType": "uint256",
          "name": "tokenId",
          "type": "uint256"
        }
      ],
      "name": "safeTransferFrom",
      "outputs": [],
      "stateMutability": "nonpayable",
      "type": "function"
    },
    {
      "inputs": [
        {
          "internalType": "address",
          "name": "from",
          "type": "address"
        },
        {
          "internalType": "address",
          "name": "to",
          "type": "address"
        },
        {
          "internalType": "uint256",
          "name": "tokenId",
          "type": "uint256"
        },
        {
          "internalType": "bytes",
          "name": "data",
          "type": "bytes"
        }
      ],
      "name": "safeTransferFrom",
      "outputs": [],
      "stateMutability": "nonpayable",
      "type": "function"
    },
    {
      "inputs": [
        {
          "internalType": "address",
          "name": "operator",
          "type": "address"
        },
        {
          "internalType": "bool",
          "name": "approved",
          "type": "bool"
        }
      ],
      "name": "setApprovalForAll",
      "outputs": [],
      "stateMutability": "nonpayable",
      "type": "function"
    },
    {
      "inputs": [
        {
          "internalType": "bytes4",
          "name": "interfaceId",
          "type": "bytes4"
        }
      ],
      "name": "supportsInterface",
      "outputs": [
        {
          "internalType": "bool",
          "name": "",
          "type": "bool"
        }
      ],
      "stateMutability": "view",
      "type": "function"
    },
    {
      "inputs": [],
      "name": "symbol",
      "outputs": [
        {
          "internalType": "string",
          "name": "",
          "type": "string"
        }
      ],
      "stateMutability": "view",
      "type": "function"
    },
    {
      "inputs": [
        {
          "internalType": "uint256",
          "name": "tokenId",
          "type": "uint256"
        }
      ],
      "name": "tokenURI",
      "outputs": [
        {
          "internalType": "string",
          "name": "",
          "type": "string"
        }
      ],
      "stateMutability": "view",
      "type": "function"
    },
    {
      "inputs": [
        {
          "internalType": "address",
          "name": "from",
          "type": "address"
        },
        {
          "internalType": "address",
          "name": "to",
          "type": "address"
        },
        {
          "internalType": "uint256",
          "name": "tokenId",
          "type": "uint256"
        }
      ],
      "name": "transferFrom",
      "outputs": [],
      "stateMutability": "nonpayable",
      "type": "function"
    },
    {
      "inputs": [
        {
          "internalType": "address",
          "name": "newOwner",
          "type": "address"
        }
      ],
      "name": "transferOwnership",
      "outputs": [],
      "stateMutability": "nonpayable",
      "type": "function"
    }
  ],
  "bytecode": "0x60806040523480156200001157600080fd5b50336040518060400160405280601281526020017f5265616c457374617465506c6174666f726d00000000000000000000000000008152506040518060400160405280600381526020017f5245500000000000000000000000000000000000000000000000000000000000815250816000908162000090919062000472565b508060019081620000a2919062000472565b505050600073ffffffffffffffffffffffffffffffffffffffff168173ffffffffffffffffffffffffffffffffffffffff16036200011a5760006040517f1e4fbdf70000000000000000000000000000000000000000000000000000000081526004016200011191906200059e565b60405180910390fd5b6200012b816200013260201b60201c565b50620005bb565b6000600760009054906101000a900473ffffffffffffffffffffffffffffffffffffffff16905081600760006101000a81548173ffffffffffffffffffffffffffffffffffffffff021916908373ffffffffffffffffffffffffffffffffffffffff1602179055508173ffffffffffffffffffffffffffffffffffffffff168173ffffffffffffffffffffffffffffffffffffffff167f8be0079c531659141344cd1fd0a4f28419497f9722a3daafe3b4186f6b6457e060405160405180910390a35050565b600081519050919050565b7f4e487b7100000000000000000000000000000000000000000000000000000000600052604160045260246000fd5b7f4e487b7100000000000000000000000000000000000000000000000000000000600052602260045260246000fd5b600060028204905060018216806200027a57607f821691505b60208210810362000290576200028f62000232565b5b50919050565b60008190508160005260206000209050919050565b60006020601f8301049050919050565b600082821b905092915050565b600060088302620002fa7fffffffffffffffffffffffffffffffffffffffffffffffffffffffffffffffff82620002bb565b620003068683620002bb565b95508019841693508086168417925050509392505050565b6000819050919050565b6000819050919050565b6000620003536200034d62000347846200031e565b62000328565b6200031e565b9050919050565b6000819050919050565b6200036f8362000332565b620003876200037e826200035a565b848454620002c8565b825550505050565b600090565b6200039e6200038f565b620003ab81848462000364565b505050565b5b81811015620003d357620003c760008262000394565b600181019050620003b1565b5050565b601f8211156200042257620003ec8162000296565b620003f784620002ab565b8101602085101562000407578190505b6200041f6200041685620002ab565b830182620003b0565b50505b505050565b600082821c905092915050565b6000620004476000198460080262000427565b1980831691505092915050565b600062000462838362000434565b9150826002028217905092915050565b6200047d82620001f8565b67ffffffffffffffff81111562000499576200049862000203565b5b620004a5825462000261565b620004b2828285620003d7565b600060209050601f831160018114620004ea5760008415620004d5578287015190505b620004e1858262000454565b86555062000551565b601f198416620004fa8662000296565b60005b828110156200052457848901518255600182019150602085019450602081019050620004fd565b8683101562000544578489015162000540601f89168262000434565b8355505b6001600288020188555050505b505050505050565b600073ffffffffffffffffffffffffffffffffffffffff82169050919050565b6000620005868262000559565b9050919050565b620005988162000579565b82525050565b6000602082019050620005b560008301846200058d565b92915050565b61370a80620005cb6000396000f3fe60806040526004361061012a5760003560e01c80637671ada0116100ab578063c87b56dd1161006f578063c87b56dd146103da578063d8330e2614610417578063e985e9c514610433578063ec0cfd0b14610470578063f2fde38b1461049b578063f7b10808146104c45761012a565b80637671ada0146103095780638da5cb5b1461033257806395d89b411461035d578063a22cb46514610388578063b88d4fde146103b15761012a565b806323b872dd116100f257806323b872dd1461022657806342842e0e1461024f5780636352211e1461027857806370a08231146102b5578063715018a6146102f25761012a565b806301ffc9a71461012f57806306fdde031461016c578063081812fc14610197578063095ea7b3146101d4578063143f3ef7146101fd575b600080fd5b34801561013b57600080fd5b50610156600480360381019061015191906126d4565b610506565b604051610163919061271c565b60405180910390f35b34801561017857600080fd5b50610181610567565b60405161018e91906127c7565b60405180910390f35b3480156101a357600080fd5b506101be60048036038101906101b9919061281f565b6105f9565b6040516101cb919061288d565b60405180910390f35b3480156101e057600080fd5b506101fb60048036038101906101f691906128d4565b610615565b005b34801561020957600080fd5b50610224600480360381019061021f9190612a49565b61062b565b005b34801561023257600080fd5b5061024d60048036038101906102489190612ad4565b6107b4565b005b34801561025b57600080fd5b5061027660048036038101906102719190612ad4565b6108b6565b005b34801561028457600080fd5b5061029f600480360381019061029a919061281f565b6108d6565b6040516102ac919061288d565b60405180910390f35b3480156102c157600080fd5b506102dc60048036038101906102d79190612b27565b6108e8565b6040516102e99190612b63565b60405180910390f35b3480156102fe57600080fd5b506103076109a2565b005b34801561031557600080fd5b50610330600480360381019061032b919061281f565b6109b6565b005b34801561033e57600080fd5b50610347610b15565b604051610354919061288d565b60405180910390f35b34801561036957600080fd5b50610372610b3f565b60405161037f91906127c7565b60405180910390f35b34801561039457600080fd5b506103af60048036038101906103aa9190612baa565b610bd1565b005b3480156103bd57600080fd5b506103d860048036038101906103d39190612c8b565b610be7565b005b3480156103e657600080fd5b5061040160048036038101906103fc919061281f565b610c04565b60405161040e91906127c7565b60405180910390f35b610431600480360381019061042c919061281f565b610d17565b005b34801561043f57600080fd5b5061045a60048036038101906104559190612d0e565b610f97565b604051610467919061271c565b60405180910390f35b34801561047c57600080fd5b5061048561102b565b6040516104929190612f17565b60405180910390f35b3480156104a757600080fd5b506104c260048036038101906104bd9190612b27565b6112d5565b005b3480156104d057600080fd5b506104eb60048036038101906104e6919061281f565b61135b565b6040516104fd96959493929190612f39565b60405180910390f35b6000634906490660e01b7bffffffffffffffffffffffffffffffffffffffffffffffffffffffff1916827bffffffffffffffffffffffffffffffffffffffffffffffffffffffff19161480610560575061055f826114d4565b5b9050919050565b60606000805461057690612fd7565b80601f01602080910402602001604051908101604052809291908181526020018280546105a290612fd7565b80156105ef5780601f106105c4576101008083540402835291602001916105ef565b820191906000526020600020905b8154815290600101906020018083116105d257829003601f168201915b5050505050905090565b6000610604826115b6565b5061060e8261163e565b9050919050565b610627828261062261167b565b611683565b5050565b610633611695565b6008600081548092919061064690613037565b9190505550600060085490506040518060c001604052808281526020013373ffffffffffffffffffffffffffffffffffffffff16815260200185815260200184815260200183815260200160011515815250600960008381526020019081526020016000206000820151816000015560208201518160010160006101000a81548173ffffffffffffffffffffffffffffffffffffffff021916908373ffffffffffffffffffffffffffffffffffffffff1602179055506040820151816002019081610711919061322b565b506060820151816003019081610727919061322b565b506080820151816004015560a08201518160050160006101000a81548160ff02191690831515021790555090505061075f338261171c565b3373ffffffffffffffffffffffffffffffffffffffff16817f23fb658c1698b92f5fe511a079c17ecf7965cbc3f1b873328c67e2c3c0820f1f846040516107a69190612b63565b60405180910390a350505050565b600073ffffffffffffffffffffffffffffffffffffffff168273ffffffffffffffffffffffffffffffffffffffff16036108265760006040517f64a0ae9200000000000000000000000000000000000000000000000000000000815260040161081d919061288d565b60405180910390fd5b600061083a838361083561167b565b611815565b90508373ffffffffffffffffffffffffffffffffffffffff168173ffffffffffffffffffffffffffffffffffffffff16146108b0578382826040517f64283d7b0000000000000000000000000000000000000000000000000000000081526004016108a7939291906132fd565b60405180910390fd5b50505050565b6108d183838360405180602001604052806000815250610be7565b505050565b60006108e1826115b6565b9050919050565b60008073ffffffffffffffffffffffffffffffffffffffff168273ffffffffffffffffffffffffffffffffffffffff160361095b5760006040517f89c62b64000000000000000000000000000000000000000000000000000000008152600401610952919061288d565b60405180910390fd5b600360008373ffffffffffffffffffffffffffffffffffffffff1673ffffffffffffffffffffffffffffffffffffffff168152602001908152602001600020549050919050565b6109aa611695565b6109b46000611a2f565b565b60006009600083815260200190815260200160002090503373ffffffffffffffffffffffffffffffffffffffff168160010160009054906101000a900473ffffffffffffffffffffffffffffffffffffffff1673ffffffffffffffffffffffffffffffffffffffff1614610a5f576040517f08c379a0000000000000000000000000000000000000000000000000000000008152600401610a56906133a6565b60405180910390fd5b8060050160009054906101000a900460ff16610ab0576040517f08c379a0000000000000000000000000000000000000000000000000000000008152600401610aa790613412565b60405180910390fd5b60008160050160006101000a81548160ff0219169083151502179055503373ffffffffffffffffffffffffffffffffffffffff16827ff2a4c441a25491a14345d458bf510ad958a0d95284304ca733d5719c40907b0560405160405180910390a35050565b6000600760009054906101000a900473ffffffffffffffffffffffffffffffffffffffff16905090565b606060018054610b4e90612fd7565b80601f0160208091040260200160405190810160405280929190818152602001828054610b7a90612fd7565b8015610bc75780601f10610b9c57610100808354040283529160200191610bc7565b820191906000526020600020905b815481529060010190602001808311610baa57829003601f168201915b5050505050905090565b610be3610bdc61167b565b8383611af5565b5050565b610bf28484846107b4565b610bfe84848484611c64565b50505050565b6060610c0f826115b6565b506000600660008481526020019081526020016000208054610c3090612fd7565b80601f0160208091040260200160405190810160405280929190818152602001828054610c5c90612fd7565b8015610ca95780601f10610c7e57610100808354040283529160200191610ca9565b820191906000526020600020905b815481529060010190602001808311610c8c57829003601f168201915b505050505090506000610cba611e1b565b90506000815103610ccf578192505050610d12565b600082511115610d04578082604051602001610cec92919061346e565b60405160208183030381529060405292505050610d12565b610d0d84611e32565b925050505b919050565b60006009600083815260200190815260200160002090508060050160009054906101000a900460ff16610d7f576040517f08c379a0000000000000000000000000000000000000000000000000000000008152600401610d76906134de565b60405180910390fd5b8060040154341015610dc6576040517f08c379a0000000000000000000000000000000000000000000000000000000008152600401610dbd9061354a565b60405180910390fd5b3373ffffffffffffffffffffffffffffffffffffffff16827f71284872bb4c088a81295dff2513729babbccfeda38a8d824bb1a73bcaab494e34604051610e0d9190612b63565b60405180910390a360008160010160009054906101000a900473ffffffffffffffffffffffffffffffffffffffff169050338260010160006101000a81548173ffffffffffffffffffffffffffffffffffffffff021916908373ffffffffffffffffffffffffffffffffffffffff16021790555060008260050160006101000a81548160ff021916908315150217905550610ea9813385611e9b565b8073ffffffffffffffffffffffffffffffffffffffff166108fc349081150290604051600060405180830381858888f19350505050158015610eef573d6000803e3d6000fd5b503373ffffffffffffffffffffffffffffffffffffffff16837f290f2083cde0be163feaae46ca85fea0ffc5f20ab98f90fcc19040a6f9a192558460040154604051610f3b9190612b63565b60405180910390a38073ffffffffffffffffffffffffffffffffffffffff16837fbe85bf3b0a1e335a22c461f84cf759dfe589ec1539caf4dce60f999d72dd8e2334604051610f8a9190612b63565b60405180910390a3505050565b6000600560008473ffffffffffffffffffffffffffffffffffffffff1673ffffffffffffffffffffffffffffffffffffffff16815260200190815260200160002060008373ffffffffffffffffffffffffffffffffffffffff1673ffffffffffffffffffffffffffffffffffffffff16815260200190815260200160002060009054906101000a900460ff16905092915050565b60606000600854905060008167ffffffffffffffff8111156110505761104f61291e565b5b60405190808252806020026020018201604052801561108957816020015b61107661261a565b81526020019060019003908161106e5790505b509050600080600190505b8381116112cb576009600082815260200190815260200160002060050160009054906101000a900460ff16156112b857600960008281526020019081526020016000206040518060c0016040529081600082015481526020016001820160009054906101000a900473ffffffffffffffffffffffffffffffffffffffff1673ffffffffffffffffffffffffffffffffffffffff1673ffffffffffffffffffffffffffffffffffffffff16815260200160028201805461115290612fd7565b80601f016020809104026020016040519081016040528092919081815260200182805461117e90612fd7565b80156111cb5780601f106111a0576101008083540402835291602001916111cb565b820191906000526020600020905b8154815290600101906020018083116111ae57829003601f168201915b505050505081526020016003820180546111e490612fd7565b80601f016020809104026020016040519081016040528092919081815260200182805461121090612fd7565b801561125d5780601f106112325761010080835404028352916020019161125d565b820191906000526020600020905b81548152906001019060200180831161124057829003601f168201915b50505050508152602001600482015481526020016005820160009054906101000a900460ff16151515158152505083838151811061129e5761129d61356a565b5b602002602001018190525081806112b490613037565b9250505b80806112c390613037565b915050611094565b5081935050505090565b6112dd611695565b600073ffffffffffffffffffffffffffffffffffffffff168173ffffffffffffffffffffffffffffffffffffffff160361134f5760006040517f1e4fbdf7000000000000000000000000000000000000000000000000000000008152600401611346919061288d565b60405180910390fd5b61135881611a2f565b50565b60096020528060005260406000206000915090508060000154908060010160009054906101000a900473ffffffffffffffffffffffffffffffffffffffff16908060020180546113aa90612fd7565b80601f01602080910402602001604051908101604052809291908181526020018280546113d690612fd7565b80156114235780601f106113f857610100808354040283529160200191611423565b820191906000526020600020905b81548152906001019060200180831161140657829003601f168201915b50505050509080600301805461143890612fd7565b80601f016020809104026020016040519081016040528092919081815260200182805461146490612fd7565b80156114b15780601f10611486576101008083540402835291602001916114b1565b820191906000526020600020905b81548152906001019060200180831161149457829003601f168201915b5050505050908060040154908060050160009054906101000a900460ff16905086565b60007f80ac58cd000000000000000000000000000000000000000000000000000000007bffffffffffffffffffffffffffffffffffffffffffffffffffffffff1916827bffffffffffffffffffffffffffffffffffffffffffffffffffffffff1916148061159f57507f5b5e139f000000000000000000000000000000000000000000000000000000007bffffffffffffffffffffffffffffffffffffffffffffffffffffffff1916827bffffffffffffffffffffffffffffffffffffffffffffffffffffffff1916145b806115af57506115ae82612008565b5b9050919050565b6000806115c283612072565b9050600073ffffffffffffffffffffffffffffffffffffffff168173ffffffffffffffffffffffffffffffffffffffff160361163557826040517f7e27328900000000000000000000000000000000000000000000000000000000815260040161162c9190612b63565b60405180910390fd5b80915050919050565b60006004600083815260200190815260200160002060009054906101000a900473ffffffffffffffffffffffffffffffffffffffff169050919050565b600033905090565b61169083838360016120af565b505050565b61169d61167b565b73ffffffffffffffffffffffffffffffffffffffff166116bb610b15565b73ffffffffffffffffffffffffffffffffffffffff161461171a576116de61167b565b6040517f118cdaa7000000000000000000000000000000000000000000000000000000008152600401611711919061288d565b60405180910390fd5b565b600073ffffffffffffffffffffffffffffffffffffffff168273ffffffffffffffffffffffffffffffffffffffff160361178e5760006040517f64a0ae92000000000000000000000000000000000000000000000000000000008152600401611785919061288d565b60405180910390fd5b600061179c83836000611815565b9050600073ffffffffffffffffffffffffffffffffffffffff168173ffffffffffffffffffffffffffffffffffffffff16146118105760006040517f73c6ac6e000000000000000000000000000000000000000000000000000000008152600401611807919061288d565b60405180910390fd5b505050565b60008061182184612072565b9050600073ffffffffffffffffffffffffffffffffffffffff168373ffffffffffffffffffffffffffffffffffffffff161461186357611862818486612274565b5b600073ffffffffffffffffffffffffffffffffffffffff168173ffffffffffffffffffffffffffffffffffffffff16146118f4576118a56000856000806120af565b6001600360008373ffffffffffffffffffffffffffffffffffffffff1673ffffffffffffffffffffffffffffffffffffffff168152602001908152602001600020600082825403925050819055505b600073ffffffffffffffffffffffffffffffffffffffff168573ffffffffffffffffffffffffffffffffffffffff1614611977576001600360008773ffffffffffffffffffffffffffffffffffffffff1673ffffffffffffffffffffffffffffffffffffffff168152602001908152602001600020600082825401925050819055505b846002600086815260200190815260200160002060006101000a81548173ffffffffffffffffffffffffffffffffffffffff021916908373ffffffffffffffffffffffffffffffffffffffff160217905550838573ffffffffffffffffffffffffffffffffffffffff168273ffffffffffffffffffffffffffffffffffffffff167fddf252ad1be2c89b69c2b068fc378daa952ba7f163c4a11628f55a4df523b3ef60405160405180910390a4809150509392505050565b6000600760009054906101000a900473ffffffffffffffffffffffffffffffffffffffff16905081600760006101000a81548173ffffffffffffffffffffffffffffffffffffffff021916908373ffffffffffffffffffffffffffffffffffffffff1602179055508173ffffffffffffffffffffffffffffffffffffffff168173ffffffffffffffffffffffffffffffffffffffff167f8be0079c531659141344cd1fd0a4f28419497f9722a3daafe3b4186f6b6457e060405160405180910390a35050565b600073ffffffffffffffffffffffffffffffffffffffff168273ffffffffffffffffffffffffffffffffffffffff1603611b6657816040517f5b08ba18000000000000000000000000000000000000000000000000000000008152600401611b5d919061288d565b60405180910390fd5b80600560008573ffffffffffffffffffffffffffffffffffffffff1673ffffffffffffffffffffffffffffffffffffffff16815260200190815260200160002060008473ffffffffffffffffffffffffffffffffffffffff1673ffffffffffffffffffffffffffffffffffffffff16815260200190815260200160002060006101000a81548160ff0219169083151502179055508173ffffffffffffffffffffffffffffffffffffffff168373ffffffffffffffffffffffffffffffffffffffff167f17307eab39ab6107e8899845ad3d59bd9653f200f220920489ca2b5937696c3183604051611c57919061271c565b60405180910390a3505050565b60008373ffffffffffffffffffffffffffffffffffffffff163b1115611e15578273ffffffffffffffffffffffffffffffffffffffff1663150b7a02611ca861167b565b8685856040518563ffffffff1660e01b8152600401611cca94939291906135ee565b6020604051808303816000875af1925050508015611d0657506040513d601f19601f82011682018060405250810190611d03919061364f565b60015b611d8a573d8060008114611d36576040519150601f19603f3d011682016040523d82523d6000602084013e611d3b565b606091505b506000815103611d8257836040517f64a0ae92000000000000000000000000000000000000000000000000000000008152600401611d79919061288d565b60405180910390fd5b805181602001fd5b63150b7a0260e01b7bffffffffffffffffffffffffffffffffffffffffffffffffffffffff1916817bffffffffffffffffffffffffffffffffffffffffffffffffffffffff191614611e1357836040517f64a0ae92000000000000000000000000000000000000000000000000000000008152600401611e0a919061288d565b60405180910390fd5b505b50505050565b606060405180602001604052806000815250905090565b6060611e3d826115b6565b506000611e48611e1b565b90506000815111611e685760405180602001604052806000815250611e93565b80611e7284612338565b604051602001611e8392919061346e565b6040516020818303038152906040525b915050919050565b600073ffffffffffffffffffffffffffffffffffffffff168273ffffffffffffffffffffffffffffffffffffffff1603611f0d5760006040517f64a0ae92000000000000000000000000000000000000000000000000000000008152600401611f04919061288d565b60405180910390fd5b6000611f1b83836000611815565b9050600073ffffffffffffffffffffffffffffffffffffffff168173ffffffffffffffffffffffffffffffffffffffff1603611f8e57816040517f7e273289000000000000000000000000000000000000000000000000000000008152600401611f859190612b63565b60405180910390fd5b8373ffffffffffffffffffffffffffffffffffffffff168173ffffffffffffffffffffffffffffffffffffffff1614612002578382826040517f64283d7b000000000000000000000000000000000000000000000000000000008152600401611ff9939291906132fd565b60405180910390fd5b50505050565b60007f01ffc9a7000000000000000000000000000000000000000000000000000000007bffffffffffffffffffffffffffffffffffffffffffffffffffffffff1916827bffffffffffffffffffffffffffffffffffffffffffffffffffffffff1916149050919050565b60006002600083815260200190815260200160002060009054906101000a900473ffffffffffffffffffffffffffffffffffffffff169050919050565b80806120e85750600073ffffffffffffffffffffffffffffffffffffffff168273ffffffffffffffffffffffffffffffffffffffff1614155b1561221c5760006120f8846115b6565b9050600073ffffffffffffffffffffffffffffffffffffffff168373ffffffffffffffffffffffffffffffffffffffff161415801561216357508273ffffffffffffffffffffffffffffffffffffffff168173ffffffffffffffffffffffffffffffffffffffff1614155b801561217657506121748184610f97565b155b156121b857826040517fa9fbf51f0000000000000000000000000000000000000000000000000000000081526004016121af919061288d565b60405180910390fd5b811561221a57838573ffffffffffffffffffffffffffffffffffffffff168273ffffffffffffffffffffffffffffffffffffffff167f8c5be1e5ebec7d5bd14f71427d1e84f3dd0314c0f7b2291e5b200ac8c7c3b92560405160405180910390a45b505b836004600085815260200190815260200160002060006101000a81548173ffffffffffffffffffffffffffffffffffffffff021916908373ffffffffffffffffffffffffffffffffffffffff16021790555050505050565b61227f838383612406565b61233357600073ffffffffffffffffffffffffffffffffffffffff168373ffffffffffffffffffffffffffffffffffffffff16036122f457806040517f7e2732890000000000000000000000000000000000000000000000000000000081526004016122eb9190612b63565b60405180910390fd5b81816040517f177e802f00000000000000000000000000000000000000000000000000000000815260040161232a92919061367c565b60405180910390fd5b505050565b606060006001612347846124c7565b01905060008167ffffffffffffffff8111156123665761236561291e565b5b6040519080825280601f01601f1916602001820160405280156123985781602001600182028036833780820191505090505b509050600082602001820190505b6001156123fb578080600190039150507f3031323334353637383961626364656600000000000000000000000000000000600a86061a8153600a85816123ef576123ee6136a5565b5b049450600085036123a6575b819350505050919050565b60008073ffffffffffffffffffffffffffffffffffffffff168373ffffffffffffffffffffffffffffffffffffffff16141580156124be57508273ffffffffffffffffffffffffffffffffffffffff168473ffffffffffffffffffffffffffffffffffffffff16148061247f575061247e8484610f97565b5b806124bd57508273ffffffffffffffffffffffffffffffffffffffff166124a58361163e565b73ffffffffffffffffffffffffffffffffffffffff16145b5b90509392505050565b600080600090507a184f03e93ff9f4daa797ed6e38ed64bf6a1f0100000000000000008310612525577a184f03e93ff9f4daa797ed6e38ed64bf6a1f010000000000000000838161251b5761251a6136a5565b5b0492506040810190505b6d04ee2d6d415b85acef81000000008310612562576d04ee2d6d415b85acef81000000008381612558576125576136a5565b5b0492506020810190505b662386f26fc10000831061259157662386f26fc100008381612587576125866136a5565b5b0492506010810190505b6305f5e10083106125ba576305f5e10083816125b0576125af6136a5565b5b0492506008810190505b61271083106125df5761271083816125d5576125d46136a5565b5b0492506004810190505b6064831061260257606483816125f8576125f76136a5565b5b0492506002810190505b600a8310612611576001810190505b80915050919050565b6040518060c0016040528060008152602001600073ffffffffffffffffffffffffffffffffffffffff1681526020016060815260200160608152602001600081526020016000151581525090565b6000604051905090565b600080fd5b600080fd5b60007fffffffff0000000000000000000000000000000000000000000000000000000082169050919050565b6126b18161267c565b81146126bc57600080fd5b50565b6000813590506126ce816126a8565b92915050565b6000602082840312156126ea576126e9612672565b5b60006126f8848285016126bf565b91505092915050565b60008115159050919050565b61271681612701565b82525050565b6000602082019050612731600083018461270d565b92915050565b600081519050919050565b600082825260208201905092915050565b60005b83811015612771578082015181840152602081019050612756565b60008484015250505050565b6000601f19601f8301169050919050565b600061279982612737565b6127a38185612742565b93506127b3818560208601612753565b6127bc8161277d565b840191505092915050565b600060208201905081810360008301526127e1818461278e565b905092915050565b6000819050919050565b6127fc816127e9565b811461280757600080fd5b50565b600081359050612819816127f3565b92915050565b60006020828403121561283557612834612672565b5b60006128438482850161280a565b91505092915050565b600073ffffffffffffffffffffffffffffffffffffffff82169050919050565b60006128778261284c565b9050919050565b6128878161286c565b82525050565b60006020820190506128a2600083018461287e565b92915050565b6128b18161286c565b81146128bc57600080fd5b50565b6000813590506128ce816128a8565b92915050565b600080604083850312156128eb576128ea612672565b5b60006128f9858286016128bf565b925050602061290a8582860161280a565b9150509250929050565b600080fd5b600080fd5b7f4e487b7100000000000000000000000000000000000000000000000000000000600052604160045260246000fd5b6129568261277d565b810181811067ffffffffffffffff821117156129755761297461291e565b5b80604052505050565b6000612988612668565b9050612994828261294d565b919050565b600067ffffffffffffffff8211156129b4576129b361291e565b5b6129bd8261277d565b9050602081019050919050565b82818337600083830152505050565b60006129ec6129e784612999565b61297e565b905082815260208101848484011115612a0857612a07612919565b5b612a138482856129ca565b509392505050565b600082601f830112612a3057612a2f612914565b5b8135612a408482602086016129d9565b91505092915050565b600080600060608486031215612a6257612a61612672565b5b600084013567ffffffffffffffff811115612a8057612a7f612677565b5b612a8c86828701612a1b565b935050602084013567ffffffffffffffff811115612aad57612aac612677565b5b612ab986828701612a1b565b9250506040612aca8682870161280a565b9150509250925092565b600080600060608486031215612aed57612aec612672565b5b6000612afb868287016128bf565b9350506020612b0c868287016128bf565b9250506040612b1d8682870161280a565b9150509250925092565b600060208284031215612b3d57612b3c612672565b5b6000612b4b848285016128bf565b91505092915050565b612b5d816127e9565b82525050565b6000602082019050612b786000830184612b54565b92915050565b612b8781612701565b8114612b9257600080fd5b50565b600081359050612ba481612b7e565b92915050565b60008060408385031215612bc157612bc0612672565b5b6000612bcf858286016128bf565b9250506020612be085828601612b95565b9150509250929050565b600067ffffffffffffffff821115612c0557612c0461291e565b5b612c0e8261277d565b9050602081019050919050565b6000612c2e612c2984612bea565b61297e565b905082815260208101848484011115612c4a57612c49612919565b5b612c558482856129ca565b509392505050565b600082601f830112612c7257612c71612914565b5b8135612c82848260208601612c1b565b91505092915050565b60008060008060808587031215612ca557612ca4612672565b5b6000612cb3878288016128bf565b9450506020612cc4878288016128bf565b9350506040612cd58782880161280a565b925050606085013567ffffffffffffffff811115612cf657612cf5612677565b5b612d0287828801612c5d565b91505092959194509250565b60008060408385031215612d2557612d24612672565b5b6000612d33858286016128bf565b9250506020612d44858286016128bf565b9150509250929050565b600081519050919050565b600082825260208201905092915050565b6000819050602082019050919050565b612d83816127e9565b82525050565b612d928161286c565b82525050565b600082825260208201905092915050565b6000612db482612737565b612dbe8185612d98565b9350612dce818560208601612753565b612dd78161277d565b840191505092915050565b612deb81612701565b82525050565b600060c083016000830151612e096000860182612d7a565b506020830151612e1c6020860182612d89565b5060408301518482036040860152612e348282612da9565b91505060608301518482036060860152612e4e8282612da9565b9150506080830151612e636080860182612d7a565b5060a0830151612e7660a0860182612de2565b508091505092915050565b6000612e8d8383612df1565b905092915050565b6000602082019050919050565b6000612ead82612d4e565b612eb78185612d59565b935083602082028501612ec985612d6a565b8060005b85811015612f055784840389528151612ee68582612e81565b9450612ef183612e95565b925060208a01995050600181019050612ecd565b50829750879550505050505092915050565b60006020820190508181036000830152612f318184612ea2565b905092915050565b600060c082019050612f4e6000830189612b54565b612f5b602083018861287e565b8181036040830152612f6d818761278e565b90508181036060830152612f81818661278e565b9050612f906080830185612b54565b612f9d60a083018461270d565b979650505050505050565b7f4e487b7100000000000000000000000000000000000000000000000000000000600052602260045260246000fd5b60006002820490506001821680612fef57607f821691505b60208210810361300257613001612fa8565b5b50919050565b7f4e487b7100000000000000000000000000000000000000000000000000000000600052601160045260246000fd5b6000613042826127e9565b91507fffffffffffffffffffffffffffffffffffffffffffffffffffffffffffffffff820361307457613073613008565b5b600182019050919050565b60008190508160005260206000209050919050565b60006020601f8301049050919050565b600082821b905092915050565b6000600883026130e17fffffffffffffffffffffffffffffffffffffffffffffffffffffffffffffffff826130a4565b6130eb86836130a4565b95508019841693508086168417925050509392505050565b6000819050919050565b600061312861312361311e846127e9565b613103565b6127e9565b9050919050565b6000819050919050565b6131428361310d565b61315661314e8261312f565b8484546130b1565b825550505050565b600090565b61316b61315e565b613176818484613139565b505050565b5b8181101561319a5761318f600082613163565b60018101905061317c565b5050565b601f8211156131df576131b08161307f565b6131b984613094565b810160208510156131c8578190505b6131dc6131d485613094565b83018261317b565b50505b505050565b600082821c905092915050565b6000613202600019846008026131e4565b1980831691505092915050565b600061321b83836131f1565b9150826002028217905092915050565b61323482612737565b67ffffffffffffffff81111561324d5761324c61291e565b5b6132578254612fd7565b61326282828561319e565b600060209050601f8311600181146132955760008415613283578287015190505b61328d858261320f565b8655506132f5565b601f1984166132a38661307f565b60005b828110156132cb578489015182556001820191506020850194506020810190506132a6565b868310156132e857848901516132e4601f8916826131f1565b8355505b6001600288020188555050505b505050505050565b6000606082019050613312600083018661287e565b61331f6020830185612b54565b61332c604083018461287e565b949350505050565b7f4f6e6c7920746865206f776e65722063616e2064656c6973742074686520707260008201527f6f70657274790000000000000000000000000000000000000000000000000000602082015250565b6000613390602683612742565b915061339b82613334565b604082019050919050565b600060208201905081810360008301526133bf81613383565b9050919050565b7f50726f7065727479206973206e6f74206c697374656400000000000000000000600082015250565b60006133fc601683612742565b9150613407826133c6565b602082019050919050565b6000602082019050818103600083015261342b816133ef565b9050919050565b600081905092915050565b600061344882612737565b6134528185613432565b9350613462818560208601612753565b80840191505092915050565b600061347a828561343d565b9150613486828461343d565b91508190509392505050565b7f50726f7065727479206973206e6f74206c697374656420666f722073616c6500600082015250565b60006134c8601f83612742565b91506134d382613492565b602082019050919050565b600060208201905081810360008301526134f7816134bb565b9050919050565b7f496e73756666696369656e74207061796d656e74000000000000000000000000600082015250565b6000613534601483612742565b915061353f826134fe565b602082019050919050565b6000602082019050818103600083015261356381613527565b9050919050565b7f4e487b7100000000000000000000000000000000000000000000000000000000600052603260045260246000fd5b600081519050919050565b600082825260208201905092915050565b60006135c082613599565b6135ca81856135a4565b93506135da818560208601612753565b6135e38161277d565b840191505092915050565b6000608082019050613603600083018761287e565b613610602083018661287e565b61361d6040830185612b54565b818103606083015261362f81846135b5565b905095945050505050565b600081519050613649816126a8565b92915050565b60006020828403121561366557613664612672565b5b60006136738482850161363a565b91505092915050565b6000604082019050613691600083018561287e565b61369e6020830184612b54565b9392505050565b7f4e487b7100000000000000000000000000000000000000000000000000000000600052601260045260246000fdfea26469706673582212209236902befbe137ee2f120fb9a8839aee093f23f36c279c26e9ca8ca751db5bf64736f6c63430008180033",
  "linkReferences": {},
  "deployedLinkReferences": {}
}