{
  "_format": "hh-sol-artifact-1",
  "contractName": "PropertyNFT",
  "sourceName": "contracts/nft.sol",
  "abi": [
    {
      "inputs": [],
      "stateMutability": "nonpayable",
      "type": "constructor"
    },
    {
      "inputs": [
        {
          "internalType": "address",
          "name": "sender",
          "type": "address"
        },
        {
          "internalType": "uint256",
          "name": "tokenId",
          "type": "uint256"
        },
        {
          "internalType": "address",
          "name": "owner",
          "type": "address"
        }
      ],
      "name": "ERC721IncorrectOwner",
      "type": "error"
    },
    {
      "inputs": [
        {
          "internalType": "address",
          "name": "operator",
          "type": "address"
        },
        {
          "internalType": "uint256",
          "name": "tokenId",
          "type": "uint256"
        }
      ],
      "name": "ERC721InsufficientApproval",
      "type": "error"
    },
    {
      "inputs": [
        {
          "internalType": "address",
          "name": "approver",
          "type": "address"
        }
      ],
      "name": "ERC721InvalidApprover",
      "type": "error"
    },
    {
      "inputs": [
        {
          "internalType": "address",
          "name": "operator",
          "type": "address"
        }
      ],
      "name": "ERC721InvalidOperator",
      "type": "error"
    },
    {
      "inputs": [
        {
          "internalType": "address",
          "name": "owner",
          "type": "address"
        }
      ],
      "name": "ERC721InvalidOwner",
      "type": "error"
    },
    {
      "inputs": [
        {
          "internalType": "address",
          "name": "receiver",
          "type": "address"
        }
      ],
      "name": "ERC721InvalidReceiver",
      "type": "error"
    },
    {
      "inputs": [
        {
          "internalType": "address",
          "name": "sender",
          "type": "address"
        }
      ],
      "name": "ERC721InvalidSender",
      "type": "error"
    },
    {
      "inputs": [
        {
          "internalType": "uint256",
          "name": "tokenId",
          "type": "uint256"
        }
      ],
      "name": "ERC721NonexistentToken",
      "type": "error"
    },
    {
      "inputs": [
        {
          "internalType": "address",
          "name": "owner",
          "type": "address"
        }
      ],
      "name": "OwnableInvalidOwner",
      "type": "error"
    },
    {
      "inputs": [
        {
          "internalType": "address",
          "name": "account",
          "type": "address"
        }
      ],
      "name": "OwnableUnauthorizedAccount",
      "type": "error"
    },
    {
      "anonymous": false,
      "inputs": [
        {
          "indexed": true,
          "internalType": "address",
          "name": "owner",
          "type": "address"
        },
        {
          "indexed": true,
          "internalType": "address",
          "name": "approved",
          "type": "address"
        },
        {
          "indexed": true,
          "internalType": "uint256",
          "name": "tokenId",
          "type": "uint256"
        }
      ],
      "name": "Approval",
      "type": "event"
    },
    {
      "anonymous": false,
      "inputs": [
        {
          "indexed": true,
          "internalType": "address",
          "name": "owner",
          "type": "address"
        },
        {
          "indexed": true,
          "internalType": "address",
          "name": "operator",
          "type": "address"
        },
        {
          "indexed": false,
          "internalType": "bool",
          "name": "approved",
          "type": "bool"
        }
      ],
      "name": "ApprovalForAll",
      "type": "event"
    },
    {
      "anonymous": false,
      "inputs": [
        {
          "indexed": false,
          "internalType": "uint256",
          "name": "_fromTokenId",
          "type": "uint256"
        },
        {
          "indexed": false,
          "internalType": "uint256",
          "name": "_toTokenId",
          "type": "uint256"
        }
      ],
      "name": "BatchMetadataUpdate",
      "type": "event"
    },
    {
      "anonymous": false,
      "inputs": [
        {
          "indexed": false,
          "internalType": "uint256",
          "name": "_tokenId",
          "type": "uint256"
        }
      ],
      "name": "MetadataUpdate",
      "type": "event"
    },
    {
      "anonymous": false,
      "inputs": [
        {
          "indexed": true,
          "internalType": "address",
          "name": "previousOwner",
          "type": "address"
        },
        {
          "indexed": true,
          "internalType": "address",
          "name": "newOwner",
          "type": "address"
        }
      ],
      "name": "OwnershipTransferred",
      "type": "event"
    },
    {
      "anonymous": false,
      "inputs": [
        {
          "indexed": false,
          "internalType": "uint256",
          "name": "tokenId",
          "type": "uint256"
        },
        {
          "indexed": false,
          "internalType": "address",
          "name": "owner",
          "type": "address"
        },
        {
          "indexed": false,
          "internalType": "uint256",
          "name": "royalty",
          "type": "uint256"
        }
      ],
      "name": "PropertyTokenized",
      "type": "event"
    },
    {
      "anonymous": false,
      "inputs": [
        {
          "indexed": true,
          "internalType": "address",
          "name": "from",
          "type": "address"
        },
        {
          "indexed": true,
          "internalType": "address",
          "name": "to",
          "type": "address"
        },
        {
          "indexed": true,
          "internalType": "uint256",
          "name": "tokenId",
          "type": "uint256"
        }
      ],
      "name": "Transfer",
      "type": "event"
    },
    {
      "inputs": [
        {
          "internalType": "address",
          "name": "to",
          "type": "address"
        },
        {
          "internalType": "uint256",
          "name": "tokenId",
          "type": "uint256"
        }
      ],
      "name": "approve",
      "outputs": [],
      "stateMutability": "nonpayable",
      "type": "function"
    },
    {
      "inputs": [
        {
          "internalType": "address",
          "name": "owner",
          "type": "address"
        }
      ],
      "name": "balanceOf",
      "outputs": [
        {
          "internalType": "uint256",
          "name": "",
          "type": "uint256"
        }
      ],
      "stateMutability": "view",
      "type": "function"
    },
    {
      "inputs": [
        {
          "internalType": "uint256",
          "name": "tokenId",
          "type": "uint256"
        }
      ],
      "name": "getApproved",
      "outputs": [
        {
          "internalType": "address",
          "name": "",
          "type": "address"
        }
      ],
      "stateMutability": "view",
      "type": "function"
    },
    {
      "inputs": [
        {
          "internalType": "address",
          "name": "owner",
          "type": "address"
        },
        {
          "internalType": "address",
          "name": "operator",
          "type": "address"
        }
      ],
      "name": "isApprovedForAll",
      "outputs": [
        {
          "internalType": "bool",
          "name": "",
          "type": "bool"
        }
      ],
      "stateMutability": "view",
      "type": "function"
    },
    {
      "inputs": [
        {
          "internalType": "string",
          "name": "tokenURI",
          "type": "string"
        },
        {
          "internalType": "uint256",
          "name": "royalty",
          "type": "uint256"
        }
      ],
      "name": "mintProperty",
      "outputs": [],
      "stateMutability": "nonpayable",
      "type": "function"
    },
    {
      "inputs": [],
      "name": "name",
      "outputs": [
        {
          "internalType": "string",
          "name": "",
          "type": "string"
        }
      ],
      "stateMutability": "view",
      "type": "function"
    },
    {
      "inputs": [],
      "name": "owner",
      "outputs": [
        {
          "internalType": "address",
          "name": "",
          "type": "address"
        }
      ],
      "stateMutability": "view",
      "type": "function"
    },
    {
      "inputs": [
        {
          "internalType": "uint256",
          "name": "tokenId",
          "type": "uint256"
        }
      ],
      "name": "ownerOf",
      "outputs": [
        {
          "internalType": "address",
          "name": "",
          "type": "address"
        }
      ],
      "stateMutability": "view",
      "type": "function"
    },
    {
      "inputs": [],
      "name": "renounceOwnership",
      "outputs": [],
      "stateMutability": "nonpayable",
      "type": "function"
    },
    {
      "inputs": [
        {
          "internalType": "uint256",
          "name": "",
          "type": "uint256"
        }
      ],
      "name": "royalties",
      "outputs": [
        {
          "internalType": "uint256",
          "name": "",
          "type": "uint256"
        }
      ],
      "stateMutability": "view",
      "type": "function"
    },
    {
      "inputs": [
        {
          "internalType": "address",
          "name": "from",
          "type": "address"
        },
        {
          "internalType": "address",
          "name": "to",
          "type": "address"
        },
        {
          "internalType": "uint256",
          "name": "tokenId",
          "type": "uint256"
        }
      ],
      "name": "safeTransferFrom",
      "outputs": [],
      "stateMutability": "nonpayable",
      "type": "function"
    },
    {
      "inputs": [
        {
          "internalType": "address",
          "name": "from",
          "type": "address"
        },
        {
          "internalType": "address",
          "name": "to",
          "type": "address"
        },
        {
          "internalType": "uint256",
          "name": "tokenId",
          "type": "uint256"
        },
        {
          "internalType": "bytes",
          "name": "data",
          "type": "bytes"
        }
      ],
      "name": "safeTransferFrom",
      "outputs": [],
      "stateMutability": "nonpayable",
      "type": "function"
    },
    {
      "inputs": [
        {
          "internalType": "address",
          "name": "operator",
          "type": "address"
        },
        {
          "internalType": "bool",
          "name": "approved",
          "type": "bool"
        }
      ],
      "name": "setApprovalForAll",
      "outputs": [],
      "stateMutability": "nonpayable",
      "type": "function"
    },
    {
      "inputs": [
        {
          "internalType": "bytes4",
          "name": "interfaceId",
          "type": "bytes4"
        }
      ],
      "name": "supportsInterface",
      "outputs": [
        {
          "internalType": "bool",
          "name": "",
          "type": "bool"
        }
      ],
      "stateMutability": "view",
      "type": "function"
    },
    {
      "inputs": [],
      "name": "symbol",
      "outputs": [
        {
          "internalType": "string",
          "name": "",
          "type": "string"
        }
      ],
      "stateMutability": "view",
      "type": "function"
    },
    {
      "inputs": [],
      "name": "tokenCount",
      "outputs": [
        {
          "internalType": "uint256",
          "name": "",
          "type": "uint256"
        }
      ],
      "stateMutability": "view",
      "type": "function"
    },
    {
      "inputs": [
        {
          "internalType": "uint256",
          "name": "tokenId",
          "type": "uint256"
        }
      ],
      "name": "tokenURI",
      "outputs": [
        {
          "internalType": "string",
          "name": "",
          "type": "string"
        }
      ],
      "stateMutability": "view",
      "type": "function"
    },
    {
      "inputs": [
        {
          "internalType": "address",
          "name": "from",
          "type": "address"
        },
        {
          "internalType": "address",
          "name": "to",
          "type": "address"
        },
        {
          "internalType": "uint256",
          "name": "tokenId",
          "type": "uint256"
        }
      ],
      "name": "transferFrom",
      "outputs": [],
      "stateMutability": "nonpayable",
      "type": "function"
    },
    {
      "inputs": [
        {
          "internalType": "address",
          "name": "newOwner",
          "type": "address"
        }
      ],
      "name": "transferOwnership",
      "outputs": [],
      "stateMutability": "nonpayable",
      "type": "function"
    },
    {
      "inputs": [
        {
          "internalType": "address",
          "name": "to",
          "type": "address"
        },
        {
          "internalType": "uint256",
          "name": "tokenId",
          "type": "uint256"
        }
      ],
      "name": "transferProperty",
      "outputs": [],
      "stateMutability": "nonpayable",
      "type": "function"
    }
  ],
  "bytecode": "0x60806040523480156200001157600080fd5b50336040518060400160405280600b81526020017f50726f70657274794e46540000000000000000000000000000000000000000008152506040518060400160405280600481526020017f504e465400000000000000000000000000000000000000000000000000000000815250816000908162000090919062000472565b508060019081620000a2919062000472565b505050600073ffffffffffffffffffffffffffffffffffffffff168173ffffffffffffffffffffffffffffffffffffffff16036200011a5760006040517f1e4fbdf70000000000000000000000000000000000000000000000000000000081526004016200011191906200059e565b60405180910390fd5b6200012b816200013260201b60201c565b50620005bb565b6000600760009054906101000a900473ffffffffffffffffffffffffffffffffffffffff16905081600760006101000a81548173ffffffffffffffffffffffffffffffffffffffff021916908373ffffffffffffffffffffffffffffffffffffffff1602179055508173ffffffffffffffffffffffffffffffffffffffff168173ffffffffffffffffffffffffffffffffffffffff167f8be0079c531659141344cd1fd0a4f28419497f9722a3daafe3b4186f6b6457e060405160405180910390a35050565b600081519050919050565b7f4e487b7100000000000000000000000000000000000000000000000000000000600052604160045260246000fd5b7f4e487b7100000000000000000000000000000000000000000000000000000000600052602260045260246000fd5b600060028204905060018216806200027a57607f821691505b60208210810362000290576200028f62000232565b5b50919050565b60008190508160005260206000209050919050565b60006020601f8301049050919050565b600082821b905092915050565b600060088302620002fa7fffffffffffffffffffffffffffffffffffffffffffffffffffffffffffffffff82620002bb565b620003068683620002bb565b95508019841693508086168417925050509392505050565b6000819050919050565b6000819050919050565b6000620003536200034d62000347846200031e565b62000328565b6200031e565b9050919050565b6000819050919050565b6200036f8362000332565b620003876200037e826200035a565b848454620002c8565b825550505050565b600090565b6200039e6200038f565b620003ab81848462000364565b505050565b5b81811015620003d357620003c760008262000394565b600181019050620003b1565b5050565b601f8211156200042257620003ec8162000296565b620003f784620002ab565b8101602085101562000407578190505b6200041f6200041685620002ab565b830182620003b0565b50505b505050565b600082821c905092915050565b6000620004476000198460080262000427565b1980831691505092915050565b600062000462838362000434565b9150826002028217905092915050565b6200047d82620001f8565b67ffffffffffffffff81111562000499576200049862000203565b5b620004a5825462000261565b620004b2828285620003d7565b600060209050601f831160018114620004ea5760008415620004d5578287015190505b620004e1858262000454565b86555062000551565b601f198416620004fa8662000296565b60005b828110156200052457848901518255600182019150602085019450602081019050620004fd565b8683101562000544578489015162000540601f89168262000434565b8355505b6001600288020188555050505b505050505050565b600073ffffffffffffffffffffffffffffffffffffffff82169050919050565b6000620005868262000559565b9050919050565b620005988162000579565b82525050565b6000602082019050620005b560008301846200058d565b92915050565b6127ce80620005cb6000396000f3fe608060405234801561001057600080fd5b506004361061012c5760003560e01c80637f77f574116100ad578063b88d4fde11610071578063b88d4fde1461032f578063c87b56dd1461034b578063e985e9c51461037b578063f2fde38b146103ab578063f644c318146103c75761012c565b80637f77f574146102895780638da5cb5b146102b957806395d89b41146102d75780639f181b5e146102f5578063a22cb465146103135761012c565b806323b872dd116100f457806323b872dd146101e757806342842e0e146102035780636352211e1461021f57806370a082311461024f578063715018a61461027f5761012c565b806301ffc9a71461013157806306fdde0314610161578063081812fc1461017f578063095ea7b3146101af5780630f8ab50f146101cb575b600080fd5b61014b60048036038101906101469190611bef565b6103e3565b6040516101589190611c37565b60405180910390f35b610169610444565b6040516101769190611ce2565b60405180910390f35b61019960048036038101906101949190611d3a565b6104d6565b6040516101a69190611da8565b60405180910390f35b6101c960048036038101906101c49190611def565b6104f2565b005b6101e560048036038101906101e09190611f64565b610508565b005b61020160048036038101906101fc9190611fc0565b61059b565b005b61021d60048036038101906102189190611fc0565b61069d565b005b61023960048036038101906102349190611d3a565b6106bd565b6040516102469190611da8565b60405180910390f35b61026960048036038101906102649190612013565b6106cf565b604051610276919061204f565b60405180910390f35b610287610789565b005b6102a3600480360381019061029e9190611d3a565b61079d565b6040516102b0919061204f565b60405180910390f35b6102c16107b5565b6040516102ce9190611da8565b60405180910390f35b6102df6107df565b6040516102ec9190611ce2565b60405180910390f35b6102fd610871565b60405161030a919061204f565b60405180910390f35b61032d60048036038101906103289190612096565b610877565b005b61034960048036038101906103449190612177565b61088d565b005b61036560048036038101906103609190611d3a565b6108aa565b6040516103729190611ce2565b60405180910390f35b610395600480360381019061039091906121fa565b6109bd565b6040516103a29190611c37565b60405180910390f35b6103c560048036038101906103c09190612013565b610a51565b005b6103e160048036038101906103dc9190611def565b610ad7565b005b6000634906490660e01b7bffffffffffffffffffffffffffffffffffffffffffffffffffffffff1916827bffffffffffffffffffffffffffffffffffffffffffffffffffffffff1916148061043d575061043c82610b4e565b5b9050919050565b60606000805461045390612269565b80601f016020809104026020016040519081016040528092919081815260200182805461047f90612269565b80156104cc5780601f106104a1576101008083540402835291602001916104cc565b820191906000526020600020905b8154815290600101906020018083116104af57829003601f168201915b5050505050905090565b60006104e182610c30565b506104eb82610cb8565b9050919050565b61050482826104ff610cf5565b610cfd565b5050565b610510610d0f565b60086000815480929190610523906122c9565b919050555061053433600854610d96565b61054060085483610e8f565b80600960006008548152602001908152602001600020819055507fd601ec042b20cd6b7e64d0ae03dd10376bddce25a059eb2fea159f6de2f33fd4600854338360405161058f93929190612311565b60405180910390a15050565b600073ffffffffffffffffffffffffffffffffffffffff168273ffffffffffffffffffffffffffffffffffffffff160361060d5760006040517f64a0ae920000000000000000000000000000000000000000000000000000000081526004016106049190611da8565b60405180910390fd5b6000610621838361061c610cf5565b610eeb565b90508373ffffffffffffffffffffffffffffffffffffffff168173ffffffffffffffffffffffffffffffffffffffff1614610697578382826040517f64283d7b00000000000000000000000000000000000000000000000000000000815260040161068e93929190612348565b60405180910390fd5b50505050565b6106b88383836040518060200160405280600081525061088d565b505050565b60006106c882610c30565b9050919050565b60008073ffffffffffffffffffffffffffffffffffffffff168273ffffffffffffffffffffffffffffffffffffffff16036107425760006040517f89c62b640000000000000000000000000000000000000000000000000000000081526004016107399190611da8565b60405180910390fd5b600360008373ffffffffffffffffffffffffffffffffffffffff1673ffffffffffffffffffffffffffffffffffffffff168152602001908152602001600020549050919050565b610791610d0f565b61079b6000611105565b565b60096020528060005260406000206000915090505481565b6000600760009054906101000a900473ffffffffffffffffffffffffffffffffffffffff16905090565b6060600180546107ee90612269565b80601f016020809104026020016040519081016040528092919081815260200182805461081a90612269565b80156108675780601f1061083c57610100808354040283529160200191610867565b820191906000526020600020905b81548152906001019060200180831161084a57829003601f168201915b5050505050905090565b60085481565b610889610882610cf5565b83836111cb565b5050565b61089884848461059b565b6108a48484848461133a565b50505050565b60606108b582610c30565b5060006006600084815260200190815260200160002080546108d690612269565b80601f016020809104026020016040519081016040528092919081815260200182805461090290612269565b801561094f5780601f106109245761010080835404028352916020019161094f565b820191906000526020600020905b81548152906001019060200180831161093257829003601f168201915b5050505050905060006109606114f1565b905060008151036109755781925050506109b8565b6000825111156109aa5780826040516020016109929291906123bb565b604051602081830303815290604052925050506109b8565b6109b384611508565b925050505b919050565b6000600560008473ffffffffffffffffffffffffffffffffffffffff1673ffffffffffffffffffffffffffffffffffffffff16815260200190815260200160002060008373ffffffffffffffffffffffffffffffffffffffff1673ffffffffffffffffffffffffffffffffffffffff16815260200190815260200160002060009054906101000a900460ff16905092915050565b610a59610d0f565b600073ffffffffffffffffffffffffffffffffffffffff168173ffffffffffffffffffffffffffffffffffffffff1603610acb5760006040517f1e4fbdf7000000000000000000000000000000000000000000000000000000008152600401610ac29190611da8565b60405180910390fd5b610ad481611105565b50565b610ae233838361069d565b600060096000838152602001908152602001600020549050610b03826106bd565b73ffffffffffffffffffffffffffffffffffffffff166108fc829081150290604051600060405180830381858888f19350505050158015610b48573d6000803e3d6000fd5b50505050565b60007f80ac58cd000000000000000000000000000000000000000000000000000000007bffffffffffffffffffffffffffffffffffffffffffffffffffffffff1916827bffffffffffffffffffffffffffffffffffffffffffffffffffffffff19161480610c1957507f5b5e139f000000000000000000000000000000000000000000000000000000007bffffffffffffffffffffffffffffffffffffffffffffffffffffffff1916827bffffffffffffffffffffffffffffffffffffffffffffffffffffffff1916145b80610c295750610c2882611571565b5b9050919050565b600080610c3c836115db565b9050600073ffffffffffffffffffffffffffffffffffffffff168173ffffffffffffffffffffffffffffffffffffffff1603610caf57826040517f7e273289000000000000000000000000000000000000000000000000000000008152600401610ca6919061204f565b60405180910390fd5b80915050919050565b60006004600083815260200190815260200160002060009054906101000a900473ffffffffffffffffffffffffffffffffffffffff169050919050565b600033905090565b610d0a8383836001611618565b505050565b610d17610cf5565b73ffffffffffffffffffffffffffffffffffffffff16610d356107b5565b73ffffffffffffffffffffffffffffffffffffffff1614610d9457610d58610cf5565b6040517f118cdaa7000000000000000000000000000000000000000000000000000000008152600401610d8b9190611da8565b60405180910390fd5b565b600073ffffffffffffffffffffffffffffffffffffffff168273ffffffffffffffffffffffffffffffffffffffff1603610e085760006040517f64a0ae92000000000000000000000000000000000000000000000000000000008152600401610dff9190611da8565b60405180910390fd5b6000610e1683836000610eeb565b9050600073ffffffffffffffffffffffffffffffffffffffff168173ffffffffffffffffffffffffffffffffffffffff1614610e8a5760006040517f73c6ac6e000000000000000000000000000000000000000000000000000000008152600401610e819190611da8565b60405180910390fd5b505050565b80600660008481526020019081526020016000209081610eaf919061258b565b507ff8e1a15aba9398e019f0b49df1a4fde98ee17ae345cb5f6b5e2c27f5033e8ce782604051610edf919061204f565b60405180910390a15050565b600080610ef7846115db565b9050600073ffffffffffffffffffffffffffffffffffffffff168373ffffffffffffffffffffffffffffffffffffffff1614610f3957610f388184866117dd565b5b600073ffffffffffffffffffffffffffffffffffffffff168173ffffffffffffffffffffffffffffffffffffffff1614610fca57610f7b600085600080611618565b6001600360008373ffffffffffffffffffffffffffffffffffffffff1673ffffffffffffffffffffffffffffffffffffffff168152602001908152602001600020600082825403925050819055505b600073ffffffffffffffffffffffffffffffffffffffff168573ffffffffffffffffffffffffffffffffffffffff161461104d576001600360008773ffffffffffffffffffffffffffffffffffffffff1673ffffffffffffffffffffffffffffffffffffffff168152602001908152602001600020600082825401925050819055505b846002600086815260200190815260200160002060006101000a81548173ffffffffffffffffffffffffffffffffffffffff021916908373ffffffffffffffffffffffffffffffffffffffff160217905550838573ffffffffffffffffffffffffffffffffffffffff168273ffffffffffffffffffffffffffffffffffffffff167fddf252ad1be2c89b69c2b068fc378daa952ba7f163c4a11628f55a4df523b3ef60405160405180910390a4809150509392505050565b6000600760009054906101000a900473ffffffffffffffffffffffffffffffffffffffff16905081600760006101000a81548173ffffffffffffffffffffffffffffffffffffffff021916908373ffffffffffffffffffffffffffffffffffffffff1602179055508173ffffffffffffffffffffffffffffffffffffffff168173ffffffffffffffffffffffffffffffffffffffff167f8be0079c531659141344cd1fd0a4f28419497f9722a3daafe3b4186f6b6457e060405160405180910390a35050565b600073ffffffffffffffffffffffffffffffffffffffff168273ffffffffffffffffffffffffffffffffffffffff160361123c57816040517f5b08ba180000000000000000000000000000000000000000000000000000000081526004016112339190611da8565b60405180910390fd5b80600560008573ffffffffffffffffffffffffffffffffffffffff1673ffffffffffffffffffffffffffffffffffffffff16815260200190815260200160002060008473ffffffffffffffffffffffffffffffffffffffff1673ffffffffffffffffffffffffffffffffffffffff16815260200190815260200160002060006101000a81548160ff0219169083151502179055508173ffffffffffffffffffffffffffffffffffffffff168373ffffffffffffffffffffffffffffffffffffffff167f17307eab39ab6107e8899845ad3d59bd9653f200f220920489ca2b5937696c318360405161132d9190611c37565b60405180910390a3505050565b60008373ffffffffffffffffffffffffffffffffffffffff163b11156114eb578273ffffffffffffffffffffffffffffffffffffffff1663150b7a0261137e610cf5565b8685856040518563ffffffff1660e01b81526004016113a094939291906126b2565b6020604051808303816000875af19250505080156113dc57506040513d601f19601f820116820180604052508101906113d99190612713565b60015b611460573d806000811461140c576040519150601f19603f3d011682016040523d82523d6000602084013e611411565b606091505b50600081510361145857836040517f64a0ae9200000000000000000000000000000000000000000000000000000000815260040161144f9190611da8565b60405180910390fd5b805181602001fd5b63150b7a0260e01b7bffffffffffffffffffffffffffffffffffffffffffffffffffffffff1916817bffffffffffffffffffffffffffffffffffffffffffffffffffffffff1916146114e957836040517f64a0ae920000000000000000000000000000000000000000000000000000000081526004016114e09190611da8565b60405180910390fd5b505b50505050565b606060405180602001604052806000815250905090565b606061151382610c30565b50600061151e6114f1565b9050600081511161153e5760405180602001604052806000815250611569565b80611548846118a1565b6040516020016115599291906123bb565b6040516020818303038152906040525b915050919050565b60007f01ffc9a7000000000000000000000000000000000000000000000000000000007bffffffffffffffffffffffffffffffffffffffffffffffffffffffff1916827bffffffffffffffffffffffffffffffffffffffffffffffffffffffff1916149050919050565b60006002600083815260200190815260200160002060009054906101000a900473ffffffffffffffffffffffffffffffffffffffff169050919050565b80806116515750600073ffffffffffffffffffffffffffffffffffffffff168273ffffffffffffffffffffffffffffffffffffffff1614155b1561178557600061166184610c30565b9050600073ffffffffffffffffffffffffffffffffffffffff168373ffffffffffffffffffffffffffffffffffffffff16141580156116cc57508273ffffffffffffffffffffffffffffffffffffffff168173ffffffffffffffffffffffffffffffffffffffff1614155b80156116df57506116dd81846109bd565b155b1561172157826040517fa9fbf51f0000000000000000000000000000000000000000000000000000000081526004016117189190611da8565b60405180910390fd5b811561178357838573ffffffffffffffffffffffffffffffffffffffff168273ffffffffffffffffffffffffffffffffffffffff167f8c5be1e5ebec7d5bd14f71427d1e84f3dd0314c0f7b2291e5b200ac8c7c3b92560405160405180910390a45b505b836004600085815260200190815260200160002060006101000a81548173ffffffffffffffffffffffffffffffffffffffff021916908373ffffffffffffffffffffffffffffffffffffffff16021790555050505050565b6117e883838361196f565b61189c57600073ffffffffffffffffffffffffffffffffffffffff168373ffffffffffffffffffffffffffffffffffffffff160361185d57806040517f7e273289000000000000000000000000000000000000000000000000000000008152600401611854919061204f565b60405180910390fd5b81816040517f177e802f000000000000000000000000000000000000000000000000000000008152600401611893929190612740565b60405180910390fd5b505050565b6060600060016118b084611a30565b01905060008167ffffffffffffffff8111156118cf576118ce611e39565b5b6040519080825280601f01601f1916602001820160405280156119015781602001600182028036833780820191505090505b509050600082602001820190505b600115611964578080600190039150507f3031323334353637383961626364656600000000000000000000000000000000600a86061a8153600a858161195857611957612769565b5b0494506000850361190f575b819350505050919050565b60008073ffffffffffffffffffffffffffffffffffffffff168373ffffffffffffffffffffffffffffffffffffffff1614158015611a2757508273ffffffffffffffffffffffffffffffffffffffff168473ffffffffffffffffffffffffffffffffffffffff1614806119e857506119e784846109bd565b5b80611a2657508273ffffffffffffffffffffffffffffffffffffffff16611a0e83610cb8565b73ffffffffffffffffffffffffffffffffffffffff16145b5b90509392505050565b600080600090507a184f03e93ff9f4daa797ed6e38ed64bf6a1f0100000000000000008310611a8e577a184f03e93ff9f4daa797ed6e38ed64bf6a1f0100000000000000008381611a8457611a83612769565b5b0492506040810190505b6d04ee2d6d415b85acef81000000008310611acb576d04ee2d6d415b85acef81000000008381611ac157611ac0612769565b5b0492506020810190505b662386f26fc100008310611afa57662386f26fc100008381611af057611aef612769565b5b0492506010810190505b6305f5e1008310611b23576305f5e1008381611b1957611b18612769565b5b0492506008810190505b6127108310611b48576127108381611b3e57611b3d612769565b5b0492506004810190505b60648310611b6b5760648381611b6157611b60612769565b5b0492506002810190505b600a8310611b7a576001810190505b80915050919050565b6000604051905090565b600080fd5b600080fd5b60007fffffffff0000000000000000000000000000000000000000000000000000000082169050919050565b611bcc81611b97565b8114611bd757600080fd5b50565b600081359050611be981611bc3565b92915050565b600060208284031215611c0557611c04611b8d565b5b6000611c1384828501611bda565b91505092915050565b60008115159050919050565b611c3181611c1c565b82525050565b6000602082019050611c4c6000830184611c28565b92915050565b600081519050919050565b600082825260208201905092915050565b60005b83811015611c8c578082015181840152602081019050611c71565b60008484015250505050565b6000601f19601f8301169050919050565b6000611cb482611c52565b611cbe8185611c5d565b9350611cce818560208601611c6e565b611cd781611c98565b840191505092915050565b60006020820190508181036000830152611cfc8184611ca9565b905092915050565b6000819050919050565b611d1781611d04565b8114611d2257600080fd5b50565b600081359050611d3481611d0e565b92915050565b600060208284031215611d5057611d4f611b8d565b5b6000611d5e84828501611d25565b91505092915050565b600073ffffffffffffffffffffffffffffffffffffffff82169050919050565b6000611d9282611d67565b9050919050565b611da281611d87565b82525050565b6000602082019050611dbd6000830184611d99565b92915050565b611dcc81611d87565b8114611dd757600080fd5b50565b600081359050611de981611dc3565b92915050565b60008060408385031215611e0657611e05611b8d565b5b6000611e1485828601611dda565b9250506020611e2585828601611d25565b9150509250929050565b600080fd5b600080fd5b7f4e487b7100000000000000000000000000000000000000000000000000000000600052604160045260246000fd5b611e7182611c98565b810181811067ffffffffffffffff82111715611e9057611e8f611e39565b5b80604052505050565b6000611ea3611b83565b9050611eaf8282611e68565b919050565b600067ffffffffffffffff821115611ecf57611ece611e39565b5b611ed882611c98565b9050602081019050919050565b82818337600083830152505050565b6000611f07611f0284611eb4565b611e99565b905082815260208101848484011115611f2357611f22611e34565b5b611f2e848285611ee5565b509392505050565b600082601f830112611f4b57611f4a611e2f565b5b8135611f5b848260208601611ef4565b91505092915050565b60008060408385031215611f7b57611f7a611b8d565b5b600083013567ffffffffffffffff811115611f9957611f98611b92565b5b611fa585828601611f36565b9250506020611fb685828601611d25565b9150509250929050565b600080600060608486031215611fd957611fd8611b8d565b5b6000611fe786828701611dda565b9350506020611ff886828701611dda565b925050604061200986828701611d25565b9150509250925092565b60006020828403121561202957612028611b8d565b5b600061203784828501611dda565b91505092915050565b61204981611d04565b82525050565b60006020820190506120646000830184612040565b92915050565b61207381611c1c565b811461207e57600080fd5b50565b6000813590506120908161206a565b92915050565b600080604083850312156120ad576120ac611b8d565b5b60006120bb85828601611dda565b92505060206120cc85828601612081565b9150509250929050565b600067ffffffffffffffff8211156120f1576120f0611e39565b5b6120fa82611c98565b9050602081019050919050565b600061211a612115846120d6565b611e99565b90508281526020810184848401111561213657612135611e34565b5b612141848285611ee5565b509392505050565b600082601f83011261215e5761215d611e2f565b5b813561216e848260208601612107565b91505092915050565b6000806000806080858703121561219157612190611b8d565b5b600061219f87828801611dda565b94505060206121b087828801611dda565b93505060406121c187828801611d25565b925050606085013567ffffffffffffffff8111156121e2576121e1611b92565b5b6121ee87828801612149565b91505092959194509250565b6000806040838503121561221157612210611b8d565b5b600061221f85828601611dda565b925050602061223085828601611dda565b9150509250929050565b7f4e487b7100000000000000000000000000000000000000000000000000000000600052602260045260246000fd5b6000600282049050600182168061228157607f821691505b6020821081036122945761229361223a565b5b50919050565b7f4e487b7100000000000000000000000000000000000000000000000000000000600052601160045260246000fd5b60006122d482611d04565b91507fffffffffffffffffffffffffffffffffffffffffffffffffffffffffffffffff82036123065761230561229a565b5b600182019050919050565b60006060820190506123266000830186612040565b6123336020830185611d99565b6123406040830184612040565b949350505050565b600060608201905061235d6000830186611d99565b61236a6020830185612040565b6123776040830184611d99565b949350505050565b600081905092915050565b600061239582611c52565b61239f818561237f565b93506123af818560208601611c6e565b80840191505092915050565b60006123c7828561238a565b91506123d3828461238a565b91508190509392505050565b60008190508160005260206000209050919050565b60006020601f8301049050919050565b600082821b905092915050565b6000600883026124417fffffffffffffffffffffffffffffffffffffffffffffffffffffffffffffffff82612404565b61244b8683612404565b95508019841693508086168417925050509392505050565b6000819050919050565b600061248861248361247e84611d04565b612463565b611d04565b9050919050565b6000819050919050565b6124a28361246d565b6124b66124ae8261248f565b848454612411565b825550505050565b600090565b6124cb6124be565b6124d6818484612499565b505050565b5b818110156124fa576124ef6000826124c3565b6001810190506124dc565b5050565b601f82111561253f57612510816123df565b612519846123f4565b81016020851015612528578190505b61253c612534856123f4565b8301826124db565b50505b505050565b600082821c905092915050565b600061256260001984600802612544565b1980831691505092915050565b600061257b8383612551565b9150826002028217905092915050565b61259482611c52565b67ffffffffffffffff8111156125ad576125ac611e39565b5b6125b78254612269565b6125c28282856124fe565b600060209050601f8311600181146125f557600084156125e3578287015190505b6125ed858261256f565b865550612655565b601f198416612603866123df565b60005b8281101561262b57848901518255600182019150602085019450602081019050612606565b868310156126485784890151612644601f891682612551565b8355505b6001600288020188555050505b505050505050565b600081519050919050565b600082825260208201905092915050565b60006126848261265d565b61268e8185612668565b935061269e818560208601611c6e565b6126a781611c98565b840191505092915050565b60006080820190506126c76000830187611d99565b6126d46020830186611d99565b6126e16040830185612040565b81810360608301526126f38184612679565b905095945050505050565b60008151905061270d81611bc3565b92915050565b60006020828403121561272957612728611b8d565b5b6000612737848285016126fe565b91505092915050565b60006040820190506127556000830185611d99565b6127626020830184612040565b9392505050565b7f4e487b7100000000000000000000000000000000000000000000000000000000600052601260045260246000fdfea26469706673582212206348d2f49897a6035621ec4301b4ff46d46ce2a1e7cd3bf97eb2e1d41693007264736f6c63430008180033",
  "linkReferences": {},
  "deployedLinkReferences": {}
}