{
  "_format": "hh-sol-artifact-1",
  "contractName": "UserManagement",
  "sourceName": "contracts/usermanage.sol",
  "abi": [
    {
      "inputs": [],
      "stateMutability": "nonpayable",
      "type": "constructor"
    },
    {
      "anonymous": false,
      "inputs": [
        {
          "indexed": true,
          "internalType": "address",
          "name": "userAddress",
          "type": "address"
        },
        {
          "indexed": false,
          "internalType": "string",
          "name": "name",
          "type": "string"
        },
        {
          "indexed": false,
          "internalType": "string",
          "name": "email",
          "type": "string"
        }
      ],
      "name": "UserRegistered",
      "type": "event"
    },
    {
      "inputs": [],
      "name": "admin",
      "outputs": [
        {
          "internalType": "address",
          "name": "",
          "type": "address"
        }
      ],
      "stateMutability": "view",
      "type": "function"
    },
    {
      "inputs": [
        {
          "internalType": "address",
          "name": "_userAddress",
          "type": "address"
        }
      ],
      "name": "getUser",
      "outputs": [
        {
          "components": [
            {
              "internalType": "address",
              "name": "userAddress",
              "type": "address"
            },
            {
              "internalType": "string",
              "name": "name",
              "type": "string"
            },
            {
              "internalType": "string",
              "name": "email",
              "type": "string"
            },
            {
              "internalType": "bool",
              "name": "isVerified",
              "type": "bool"
            }
          ],
          "internalType": "struct UserManagement.User",
          "name": "",
          "type": "tuple"
        }
      ],
      "stateMutability": "view",
      "type": "function"
    },
    {
      "inputs": [
        {
          "internalType": "address",
          "name": "_userAddress",
          "type": "address"
        },
        {
          "internalType": "string",
          "name": "_name",
          "type": "string"
        },
        {
          "internalType": "string",
          "name": "email",
          "type": "string"
        }
      ],
      "name": "registerUser",
      "outputs": [],
      "stateMutability": "nonpayable",
      "type": "function"
    },
    {
      "inputs": [
        {
          "internalType": "address",
          "name": "",
          "type": "address"
        }
      ],
      "name": "users",
      "outputs": [
        {
          "internalType": "address",
          "name": "userAddress",
          "type": "address"
        },
        {
          "internalType": "string",
          "name": "name",
          "type": "string"
        },
        {
          "internalType": "string",
          "name": "email",
          "type": "string"
        },
        {
          "internalType": "bool",
          "name": "isVerified",
          "type": "bool"
        }
      ],
      "stateMutability": "view",
      "type": "function"
    },
    {
      "inputs": [
        {
          "internalType": "address",
          "name": "_userAddress",
          "type": "address"
        }
      ],
      "name": "verifyUser",
      "outputs": [],
      "stateMutability": "nonpayable",
      "type": "function"
    }
  ],
  "bytecode": "0x608060405234801561001057600080fd5b5033600160006101000a81548173ffffffffffffffffffffffffffffffffffffffff021916908373ffffffffffffffffffffffffffffffffffffffff16021790555061119f806100616000396000f3fe608060405234801561001057600080fd5b50600436106100575760003560e01c80634d8131201461005c5780636f77926b14610078578063a87430ba146100a8578063db0c87c9146100db578063f851a440146100f7575b600080fd5b61007660048036038101906100719190610943565b610115565b005b610092600480360381019061008d9190610943565b610202565b60405161009f9190610a94565b60405180910390f35b6100c260048036038101906100bd9190610943565b61047d565b6040516100d29493929190610b1e565b60405180910390f35b6100f560048036038101906100f09190610ca6565b6105ea565b005b6100ff61086b565b60405161010c9190610d31565b60405180910390f35b600160009054906101000a900473ffffffffffffffffffffffffffffffffffffffff1673ffffffffffffffffffffffffffffffffffffffff163373ffffffffffffffffffffffffffffffffffffffff16146101a5576040517f08c379a000000000000000000000000000000000000000000000000000000000815260040161019c90610dbe565b60405180910390fd5b60016000808373ffffffffffffffffffffffffffffffffffffffff1673ffffffffffffffffffffffffffffffffffffffff16815260200190815260200160002060030160006101000a81548160ff02191690831515021790555050565b61020a610891565b6000803373ffffffffffffffffffffffffffffffffffffffff1673ffffffffffffffffffffffffffffffffffffffff16815260200190815260200160002060030160009054906101000a900460ff16610298576040517f08c379a000000000000000000000000000000000000000000000000000000000815260040161028f90610e2a565b60405180910390fd5b6000808373ffffffffffffffffffffffffffffffffffffffff1673ffffffffffffffffffffffffffffffffffffffff1681526020019081526020016000206040518060800160405290816000820160009054906101000a900473ffffffffffffffffffffffffffffffffffffffff1673ffffffffffffffffffffffffffffffffffffffff1673ffffffffffffffffffffffffffffffffffffffff16815260200160018201805461034790610e79565b80601f016020809104026020016040519081016040528092919081815260200182805461037390610e79565b80156103c05780601f10610395576101008083540402835291602001916103c0565b820191906000526020600020905b8154815290600101906020018083116103a357829003601f168201915b505050505081526020016002820180546103d990610e79565b80601f016020809104026020016040519081016040528092919081815260200182805461040590610e79565b80156104525780601f1061042757610100808354040283529160200191610452565b820191906000526020600020905b81548152906001019060200180831161043557829003601f168201915b505050505081526020016003820160009054906101000a900460ff1615151515815250509050919050565b60006020528060005260406000206000915090508060000160009054906101000a900473ffffffffffffffffffffffffffffffffffffffff16908060010180546104c690610e79565b80601f01602080910402602001604051908101604052809291908181526020018280546104f290610e79565b801561053f5780601f106105145761010080835404028352916020019161053f565b820191906000526020600020905b81548152906001019060200180831161052257829003601f168201915b50505050509080600201805461055490610e79565b80601f016020809104026020016040519081016040528092919081815260200182805461058090610e79565b80156105cd5780601f106105a2576101008083540402835291602001916105cd565b820191906000526020600020905b8154815290600101906020018083116105b057829003601f168201915b5050505050908060030160009054906101000a900460ff16905084565b600160009054906101000a900473ffffffffffffffffffffffffffffffffffffffff1673ffffffffffffffffffffffffffffffffffffffff163373ffffffffffffffffffffffffffffffffffffffff161461067a576040517f08c379a000000000000000000000000000000000000000000000000000000000815260040161067190610dbe565b60405180910390fd5b6000803373ffffffffffffffffffffffffffffffffffffffff1673ffffffffffffffffffffffffffffffffffffffff16815260200190815260200160002060030160009054906101000a900460ff16610708576040517f08c379a00000000000000000000000000000000000000000000000000000000081526004016106ff90610e2a565b60405180910390fd5b60405180608001604052808473ffffffffffffffffffffffffffffffffffffffff168152602001838152602001828152602001600015158152506000808573ffffffffffffffffffffffffffffffffffffffff1673ffffffffffffffffffffffffffffffffffffffff16815260200190815260200160002060008201518160000160006101000a81548173ffffffffffffffffffffffffffffffffffffffff021916908373ffffffffffffffffffffffffffffffffffffffff16021790555060208201518160010190816107dc9190611060565b5060408201518160020190816107f29190611060565b5060608201518160030160006101000a81548160ff0219169083151502179055509050503373ffffffffffffffffffffffffffffffffffffffff167f92822564bab8864c3a47b34e8d23fbce5c46234eb5da261f94087b995ac0f33b838360405161085e929190611132565b60405180910390a2505050565b600160009054906101000a900473ffffffffffffffffffffffffffffffffffffffff1681565b6040518060800160405280600073ffffffffffffffffffffffffffffffffffffffff16815260200160608152602001606081526020016000151581525090565b6000604051905090565b600080fd5b600080fd5b600073ffffffffffffffffffffffffffffffffffffffff82169050919050565b6000610910826108e5565b9050919050565b61092081610905565b811461092b57600080fd5b50565b60008135905061093d81610917565b92915050565b600060208284031215610959576109586108db565b5b60006109678482850161092e565b91505092915050565b61097981610905565b82525050565b600081519050919050565b600082825260208201905092915050565b60005b838110156109b957808201518184015260208101905061099e565b60008484015250505050565b6000601f19601f8301169050919050565b60006109e18261097f565b6109eb818561098a565b93506109fb81856020860161099b565b610a04816109c5565b840191505092915050565b60008115159050919050565b610a2481610a0f565b82525050565b6000608083016000830151610a426000860182610970565b5060208301518482036020860152610a5a82826109d6565b91505060408301518482036040860152610a7482826109d6565b9150506060830151610a896060860182610a1b565b508091505092915050565b60006020820190508181036000830152610aae8184610a2a565b905092915050565b610abf81610905565b82525050565b600082825260208201905092915050565b6000610ae18261097f565b610aeb8185610ac5565b9350610afb81856020860161099b565b610b04816109c5565b840191505092915050565b610b1881610a0f565b82525050565b6000608082019050610b336000830187610ab6565b8181036020830152610b458186610ad6565b90508181036040830152610b598185610ad6565b9050610b686060830184610b0f565b95945050505050565b600080fd5b600080fd5b7f4e487b7100000000000000000000000000000000000000000000000000000000600052604160045260246000fd5b610bb3826109c5565b810181811067ffffffffffffffff82111715610bd257610bd1610b7b565b5b80604052505050565b6000610be56108d1565b9050610bf18282610baa565b919050565b600067ffffffffffffffff821115610c1157610c10610b7b565b5b610c1a826109c5565b9050602081019050919050565b82818337600083830152505050565b6000610c49610c4484610bf6565b610bdb565b905082815260208101848484011115610c6557610c64610b76565b5b610c70848285610c27565b509392505050565b600082601f830112610c8d57610c8c610b71565b5b8135610c9d848260208601610c36565b91505092915050565b600080600060608486031215610cbf57610cbe6108db565b5b6000610ccd8682870161092e565b935050602084013567ffffffffffffffff811115610cee57610ced6108e0565b5b610cfa86828701610c78565b925050604084013567ffffffffffffffff811115610d1b57610d1a6108e0565b5b610d2786828701610c78565b9150509250925092565b6000602082019050610d466000830184610ab6565b92915050565b7f4f6e6c792061646d696e2063616e20706572666f726d2074686973206163746960008201527f6f6e000000000000000000000000000000000000000000000000000000000000602082015250565b6000610da8602283610ac5565b9150610db382610d4c565b604082019050919050565b60006020820190508181036000830152610dd781610d9b565b9050919050565b7f5573657220616c72656164792072656769737465726564000000000000000000600082015250565b6000610e14601783610ac5565b9150610e1f82610dde565b602082019050919050565b60006020820190508181036000830152610e4381610e07565b9050919050565b7f4e487b7100000000000000000000000000000000000000000000000000000000600052602260045260246000fd5b60006002820490506001821680610e9157607f821691505b602082108103610ea457610ea3610e4a565b5b50919050565b60008190508160005260206000209050919050565b60006020601f8301049050919050565b600082821b905092915050565b600060088302610f0c7fffffffffffffffffffffffffffffffffffffffffffffffffffffffffffffffff82610ecf565b610f168683610ecf565b95508019841693508086168417925050509392505050565b6000819050919050565b6000819050919050565b6000610f5d610f58610f5384610f2e565b610f38565b610f2e565b9050919050565b6000819050919050565b610f7783610f42565b610f8b610f8382610f64565b848454610edc565b825550505050565b600090565b610fa0610f93565b610fab818484610f6e565b505050565b5b81811015610fcf57610fc4600082610f98565b600181019050610fb1565b5050565b601f82111561101457610fe581610eaa565b610fee84610ebf565b81016020851015610ffd578190505b61101161100985610ebf565b830182610fb0565b50505b505050565b600082821c905092915050565b600061103760001984600802611019565b1980831691505092915050565b60006110508383611026565b9150826002028217905092915050565b6110698261097f565b67ffffffffffffffff81111561108257611081610b7b565b5b61108c8254610e79565b611097828285610fd3565b600060209050601f8311600181146110ca57600084156110b8578287015190505b6110c28582611044565b86555061112a565b601f1984166110d886610eaa565b60005b82811015611100578489015182556001820191506020850194506020810190506110db565b8683101561111d5784890151611119601f891682611026565b8355505b6001600288020188555050505b505050505050565b6000604082019050818103600083015261114c8185610ad6565b905081810360208301526111608184610ad6565b9050939250505056fea2646970667358221220518baccd68c95109b7bb503d626f89b992ad5db4055f1a337189760f546fbe3c64736f6c63430008180033",
  "linkReferences": {},
  "deployedLinkReferences": {}
}