{
  "_format": "hh-sol-artifact-1",
  "contractName": "RealEstatePlatform",
  "sourceName": "contracts/realestate.sol",
  "abi": [
    {
      "inputs": [
        {
          "internalType": "address",
          "name": "_nftContract",
          "type": "address"
        },
        {
          "internalType": "address",
          "name": "_userManagementContract",
          "type": "address"
        }
      ],
      "stateMutability": "nonpayable",
      "type": "constructor"
    },
    {
      "inputs": [
        {
          "internalType": "address",
          "name": "sender",
          "type": "address"
        },
        {
          "internalType": "uint256",
          "name": "tokenId",
          "type": "uint256"
        },
        {
          "internalType": "address",
          "name": "owner",
          "type": "address"
        }
      ],
      "name": "ERC721IncorrectOwner",
      "type": "error"
    },
    {
      "inputs": [
        {
          "internalType": "address",
          "name": "operator",
          "type": "address"
        },
        {
          "internalType": "uint256",
          "name": "tokenId",
          "type": "uint256"
        }
      ],
      "name": "ERC721InsufficientApproval",
      "type": "error"
    },
    {
      "inputs": [
        {
          "internalType": "address",
          "name": "approver",
          "type": "address"
        }
      ],
      "name": "ERC721InvalidApprover",
      "type": "error"
    },
    {
      "inputs": [
        {
          "internalType": "address",
          "name": "operator",
          "type": "address"
        }
      ],
      "name": "ERC721InvalidOperator",
      "type": "error"
    },
    {
      "inputs": [
        {
          "internalType": "address",
          "name": "owner",
          "type": "address"
        }
      ],
      "name": "ERC721InvalidOwner",
      "type": "error"
    },
    {
      "inputs": [
        {
          "internalType": "address",
          "name": "receiver",
          "type": "address"
        }
      ],
      "name": "ERC721InvalidReceiver",
      "type": "error"
    },
    {
      "inputs": [
        {
          "internalType": "address",
          "name": "sender",
          "type": "address"
        }
      ],
      "name": "ERC721InvalidSender",
      "type": "error"
    },
    {
      "inputs": [
        {
          "internalType": "uint256",
          "name": "tokenId",
          "type": "uint256"
        }
      ],
      "name": "ERC721NonexistentToken",
      "type": "error"
    },
    {
      "inputs": [
        {
          "internalType": "address",
          "name": "owner",
          "type": "address"
        }
      ],
      "name": "OwnableInvalidOwner",
      "type": "error"
    },
    {
      "inputs": [
        {
          "internalType": "address",
          "name": "account",
          "type": "address"
        }
      ],
      "name": "OwnableUnauthorizedAccount",
      "type": "error"
    },
    {
      "anonymous": false,
      "inputs": [
        {
          "indexed": true,
          "internalType": "address",
          "name": "owner",
          "type": "address"
        },
        {
          "indexed": true,
          "internalType": "address",
          "name": "approved",
          "type": "address"
        },
        {
          "indexed": true,
          "internalType": "uint256",
          "name": "tokenId",
          "type": "uint256"
        }
      ],
      "name": "Approval",
      "type": "event"
    },
    {
      "anonymous": false,
      "inputs": [
        {
          "indexed": true,
          "internalType": "address",
          "name": "owner",
          "type": "address"
        },
        {
          "indexed": true,
          "internalType": "address",
          "name": "operator",
          "type": "address"
        },
        {
          "indexed": false,
          "internalType": "bool",
          "name": "approved",
          "type": "bool"
        }
      ],
      "name": "ApprovalForAll",
      "type": "event"
    },
    {
      "anonymous": false,
      "inputs": [
        {
          "indexed": false,
          "internalType": "uint256",
          "name": "_fromTokenId",
          "type": "uint256"
        },
        {
          "indexed": false,
          "internalType": "uint256",
          "name": "_toTokenId",
          "type": "uint256"
        }
      ],
      "name": "BatchMetadataUpdate",
      "type": "event"
    },
    {
      "anonymous": false,
      "inputs": [
        {
          "indexed": true,
          "internalType": "uint256",
          "name": "propertyId",
          "type": "uint256"
        },
        {
          "indexed": true,
          "internalType": "address",
          "name": "owner",
          "type": "address"
        }
      ],
      "name": "DeListProperty",
      "type": "event"
    },
    {
      "anonymous": false,
      "inputs": [
        {
          "indexed": false,
          "internalType": "uint256",
          "name": "_tokenId",
          "type": "uint256"
        }
      ],
      "name": "MetadataUpdate",
      "type": "event"
    },
    {
      "anonymous": false,
      "inputs": [
        {
          "indexed": true,
          "internalType": "address",
          "name": "previousOwner",
          "type": "address"
        },
        {
          "indexed": true,
          "internalType": "address",
          "name": "newOwner",
          "type": "address"
        }
      ],
      "name": "OwnershipTransferred",
      "type": "event"
    },
    {
      "anonymous": false,
      "inputs": [
        {
          "indexed": true,
          "internalType": "uint256",
          "name": "propertyId",
          "type": "uint256"
        },
        {
          "indexed": true,
          "internalType": "address",
          "name": "buyer",
          "type": "address"
        },
        {
          "indexed": false,
          "internalType": "uint256",
          "name": "amount",
          "type": "uint256"
        }
      ],
      "name": "PaymentDeposited",
      "type": "event"
    },
    {
      "anonymous": false,
      "inputs": [
        {
          "indexed": true,
          "internalType": "uint256",
          "name": "propertyId",
          "type": "uint256"
        },
        {
          "indexed": true,
          "internalType": "address",
          "name": "seller",
          "type": "address"
        },
        {
          "indexed": false,
          "internalType": "uint256",
          "name": "amount",
          "type": "uint256"
        }
      ],
      "name": "PaymentWithdrawn",
      "type": "event"
    },
    {
      "anonymous": false,
      "inputs": [
        {
          "indexed": true,
          "internalType": "uint256",
          "name": "propertyId",
          "type": "uint256"
        },
        {
          "indexed": true,
          "internalType": "address",
          "name": "buyer",
          "type": "address"
        },
        {
          "indexed": false,
          "internalType": "uint256",
          "name": "price",
          "type": "uint256"
        }
      ],
      "name": "PropertyBought",
      "type": "event"
    },
    {
      "anonymous": false,
      "inputs": [
        {
          "indexed": true,
          "internalType": "uint256",
          "name": "propertyId",
          "type": "uint256"
        },
        {
          "indexed": true,
          "internalType": "address",
          "name": "owner",
          "type": "address"
        },
        {
          "indexed": false,
          "internalType": "uint256",
          "name": "price",
          "type": "uint256"
        }
      ],
      "name": "PropertyListed",
      "type": "event"
    },
    {
      "anonymous": false,
      "inputs": [
        {
          "indexed": true,
          "internalType": "address",
          "name": "from",
          "type": "address"
        },
        {
          "indexed": true,
          "internalType": "address",
          "name": "to",
          "type": "address"
        },
        {
          "indexed": true,
          "internalType": "uint256",
          "name": "tokenId",
          "type": "uint256"
        }
      ],
      "name": "Transfer",
      "type": "event"
    },
    {
      "inputs": [
        {
          "internalType": "string",
          "name": "description",
          "type": "string"
        },
        {
          "internalType": "string",
          "name": "ipfsHash",
          "type": "string"
        },
        {
          "internalType": "uint256",
          "name": "price",
          "type": "uint256"
        }
      ],
      "name": "ListingProp",
      "outputs": [],
      "stateMutability": "nonpayable",
      "type": "function"
    },
    {
      "inputs": [
        {
          "internalType": "address",
          "name": "to",
          "type": "address"
        },
        {
          "internalType": "uint256",
          "name": "tokenId",
          "type": "uint256"
        }
      ],
      "name": "approve",
      "outputs": [],
      "stateMutability": "nonpayable",
      "type": "function"
    },
    {
      "inputs": [
        {
          "internalType": "address",
          "name": "owner",
          "type": "address"
        }
      ],
      "name": "balanceOf",
      "outputs": [
        {
          "internalType": "uint256",
          "name": "",
          "type": "uint256"
        }
      ],
      "stateMutability": "view",
      "type": "function"
    },
    {
      "inputs": [
        {
          "internalType": "uint256",
          "name": "propertyId",
          "type": "uint256"
        }
      ],
      "name": "buyProp",
      "outputs": [],
      "stateMutability": "payable",
      "type": "function"
    },
    {
      "inputs": [
        {
          "internalType": "uint256",
          "name": "propertyId",
          "type": "uint256"
        }
      ],
      "name": "delistProp",
      "outputs": [],
      "stateMutability": "nonpayable",
      "type": "function"
    },
    {
      "inputs": [
        {
          "internalType": "uint256",
          "name": "tokenId",
          "type": "uint256"
        }
      ],
      "name": "getApproved",
      "outputs": [
        {
          "internalType": "address",
          "name": "",
          "type": "address"
        }
      ],
      "stateMutability": "view",
      "type": "function"
    },
    {
      "inputs": [],
      "name": "getProperties",
      "outputs": [
        {
          "components": [
            {
              "internalType": "uint256",
              "name": "id",
              "type": "uint256"
            },
            {
              "internalType": "address",
              "name": "owner",
              "type": "address"
            },
            {
              "internalType": "string",
              "name": "description",
              "type": "string"
            },
            {
              "internalType": "string",
              "name": "ipfsHash",
              "type": "string"
            },
            {
              "internalType": "uint256",
              "name": "price",
              "type": "uint256"
            },
            {
              "internalType": "bool",
              "name": "isListed",
              "type": "bool"
            }
          ],
          "internalType": "struct RealEstatePlatform.Property[]",
          "name": "",
          "type": "tuple[]"
        }
      ],
      "stateMutability": "view",
      "type": "function"
    },
    {
      "inputs": [
        {
          "internalType": "address",
          "name": "owner",
          "type": "address"
        },
        {
          "internalType": "address",
          "name": "operator",
          "type": "address"
        }
      ],
      "name": "isApprovedForAll",
      "outputs": [
        {
          "internalType": "bool",
          "name": "",
          "type": "bool"
        }
      ],
      "stateMutability": "view",
      "type": "function"
    },
    {
      "inputs": [],
      "name": "name",
      "outputs": [
        {
          "internalType": "string",
          "name": "",
          "type": "string"
        }
      ],
      "stateMutability": "view",
      "type": "function"
    },
    {
      "inputs": [],
      "name": "owner",
      "outputs": [
        {
          "internalType": "address",
          "name": "",
          "type": "address"
        }
      ],
      "stateMutability": "view",
      "type": "function"
    },
    {
      "inputs": [
        {
          "internalType": "uint256",
          "name": "tokenId",
          "type": "uint256"
        }
      ],
      "name": "ownerOf",
      "outputs": [
        {
          "internalType": "address",
          "name": "",
          "type": "address"
        }
      ],
      "stateMutability": "view",
      "type": "function"
    },
    {
      "inputs": [
        {
          "internalType": "uint256",
          "name": "",
          "type": "uint256"
        }
      ],
      "name": "properties",
      "outputs": [
        {
          "internalType": "uint256",
          "name": "id",
          "type": "uint256"
        },
        {
          "internalType": "address",
          "name": "owner",
          "type": "address"
        },
        {
          "internalType": "string",
          "name": "description",
          "type": "string"
        },
        {
          "internalType": "string",
          "name": "ipfsHash",
          "type": "string"
        },
        {
          "internalType": "uint256",
          "name": "price",
          "type": "uint256"
        },
        {
          "internalType": "bool",
          "name": "isListed",
          "type": "bool"
        }
      ],
      "stateMutability": "view",
      "type": "function"
    },
    {
      "inputs": [],
      "name": "renounceOwnership",
      "outputs": [],
      "stateMutability": "nonpayable",
      "type": "function"
    },
    {
      "inputs": [
        {
          "internalType": "address",
          "name": "from",
          "type": "address"
        },
        {
          "internalType": "address",
          "name": "to",
          "type": "address"
        },
        {
          "internalType": "uint256",
          "name": "tokenId",
          "type": "uint256"
        }
      ],
      "name": "safeTransferFrom",
      "outputs": [],
      "stateMutability": "nonpayable",
      "type": "function"
    },
    {
      "inputs": [
        {
          "internalType": "address",
          "name": "from",
          "type": "address"
        },
        {
          "internalType": "address",
          "name": "to",
          "type": "address"
        },
        {
          "internalType": "uint256",
          "name": "tokenId",
          "type": "uint256"
        },
        {
          "internalType": "bytes",
          "name": "data",
          "type": "bytes"
        }
      ],
      "name": "safeTransferFrom",
      "outputs": [],
      "stateMutability": "nonpayable",
      "type": "function"
    },
    {
      "inputs": [
        {
          "internalType": "address",
          "name": "operator",
          "type": "address"
        },
        {
          "internalType": "bool",
          "name": "approved",
          "type": "bool"
        }
      ],
      "name": "setApprovalForAll",
      "outputs": [],
      "stateMutability": "nonpayable",
      "type": "function"
    },
    {
      "inputs": [
        {
          "internalType": "bytes4",
          "name": "interfaceId",
          "type": "bytes4"
        }
      ],
      "name": "supportsInterface",
      "outputs": [
        {
          "internalType": "bool",
          "name": "",
          "type": "bool"
        }
      ],
      "stateMutability": "view",
      "type": "function"
    },
    {
      "inputs": [],
      "name": "symbol",
      "outputs": [
        {
          "internalType": "string",
          "name": "",
          "type": "string"
        }
      ],
      "stateMutability": "view",
      "type": "function"
    },
    {
      "inputs": [
        {
          "internalType": "uint256",
          "name": "tokenId",
          "type": "uint256"
        }
      ],
      "name": "tokenURI",
      "outputs": [
        {
          "internalType": "string",
          "name": "",
          "type": "string"
        }
      ],
      "stateMutability": "view",
      "type": "function"
    },
    {
      "inputs": [
        {
          "internalType": "address",
          "name": "from",
          "type": "address"
        },
        {
          "internalType": "address",
          "name": "to",
          "type": "address"
        },
        {
          "internalType": "uint256",
          "name": "tokenId",
          "type": "uint256"
        }
      ],
      "name": "transferFrom",
      "outputs": [],
      "stateMutability": "nonpayable",
      "type": "function"
    },
    {
      "inputs": [
        {
          "internalType": "address",
          "name": "newOwner",
          "type": "address"
        }
      ],
      "name": "transferOwnership",
      "outputs": [],
      "stateMutability": "nonpayable",
      "type": "function"
    }
  ],
  "bytecode": "0x60806040523480156200001157600080fd5b50604051620041883803806200418883398181016040528101906200003791906200030b565b336040518060400160405280601281526020017f5265616c457374617465506c6174666f726d00000000000000000000000000008152506040518060400160405280600381526020017f52455000000000000000000000000000000000000000000000000000000000008152508160009081620000b59190620005cc565b508060019081620000c79190620005cc565b505050600073ffffffffffffffffffffffffffffffffffffffff168173ffffffffffffffffffffffffffffffffffffffff16036200013f5760006040517f1e4fbdf7000000000000000000000000000000000000000000000000000000008152600401620001369190620006c4565b60405180910390fd5b6200015081620001db60201b60201c565b5081600a60006101000a81548173ffffffffffffffffffffffffffffffffffffffff021916908373ffffffffffffffffffffffffffffffffffffffff16021790555080600b60006101000a81548173ffffffffffffffffffffffffffffffffffffffff021916908373ffffffffffffffffffffffffffffffffffffffff1602179055505050620006e1565b6000600760009054906101000a900473ffffffffffffffffffffffffffffffffffffffff16905081600760006101000a81548173ffffffffffffffffffffffffffffffffffffffff021916908373ffffffffffffffffffffffffffffffffffffffff1602179055508173ffffffffffffffffffffffffffffffffffffffff168173ffffffffffffffffffffffffffffffffffffffff167f8be0079c531659141344cd1fd0a4f28419497f9722a3daafe3b4186f6b6457e060405160405180910390a35050565b600080fd5b600073ffffffffffffffffffffffffffffffffffffffff82169050919050565b6000620002d382620002a6565b9050919050565b620002e581620002c6565b8114620002f157600080fd5b50565b6000815190506200030581620002da565b92915050565b60008060408385031215620003255762000324620002a1565b5b60006200033585828601620002f4565b92505060206200034885828601620002f4565b9150509250929050565b600081519050919050565b7f4e487b7100000000000000000000000000000000000000000000000000000000600052604160045260246000fd5b7f4e487b7100000000000000000000000000000000000000000000000000000000600052602260045260246000fd5b60006002820490506001821680620003d457607f821691505b602082108103620003ea57620003e96200038c565b5b50919050565b60008190508160005260206000209050919050565b60006020601f8301049050919050565b600082821b905092915050565b600060088302620004547fffffffffffffffffffffffffffffffffffffffffffffffffffffffffffffffff8262000415565b62000460868362000415565b95508019841693508086168417925050509392505050565b6000819050919050565b6000819050919050565b6000620004ad620004a7620004a18462000478565b62000482565b62000478565b9050919050565b6000819050919050565b620004c9836200048c565b620004e1620004d882620004b4565b84845462000422565b825550505050565b600090565b620004f8620004e9565b62000505818484620004be565b505050565b5b818110156200052d5762000521600082620004ee565b6001810190506200050b565b5050565b601f8211156200057c576200054681620003f0565b620005518462000405565b8101602085101562000561578190505b62000579620005708562000405565b8301826200050a565b50505b505050565b600082821c905092915050565b6000620005a16000198460080262000581565b1980831691505092915050565b6000620005bc83836200058e565b9150826002028217905092915050565b620005d78262000352565b67ffffffffffffffff811115620005f357620005f26200035d565b5b620005ff8254620003bb565b6200060c82828562000531565b600060209050601f8311600181146200064457600084156200062f578287015190505b6200063b8582620005ae565b865550620006ab565b601f1984166200065486620003f0565b60005b828110156200067e5784890151825560018201915060208501945060208101905062000657565b868310156200069e57848901516200069a601f8916826200058e565b8355505b6001600288020188555050505b505050505050565b620006be81620002c6565b82525050565b6000602082019050620006db6000830184620006b3565b92915050565b613a9780620006f16000396000f3fe60806040526004361061012a5760003560e01c80637671ada0116100ab578063c87b56dd1161006f578063c87b56dd146103da578063d8330e2614610417578063e985e9c514610433578063ec0cfd0b14610470578063f2fde38b1461049b578063f7b10808146104c45761012a565b80637671ada0146103095780638da5cb5b1461033257806395d89b411461035d578063a22cb46514610388578063b88d4fde146103b15761012a565b806323b872dd116100f257806323b872dd1461022657806342842e0e1461024f5780636352211e1461027857806370a08231146102b5578063715018a6146102f25761012a565b806301ffc9a71461012f57806306fdde031461016c578063081812fc14610197578063095ea7b3146101d4578063143f3ef7146101fd575b600080fd5b34801561013b57600080fd5b5061015660048036038101906101519190612828565b610506565b6040516101639190612870565b60405180910390f35b34801561017857600080fd5b50610181610567565b60405161018e919061291b565b60405180910390f35b3480156101a357600080fd5b506101be60048036038101906101b99190612973565b6105f9565b6040516101cb91906129e1565b60405180910390f35b3480156101e057600080fd5b506101fb60048036038101906101f69190612a28565b610615565b005b34801561020957600080fd5b50610224600480360381019061021f9190612b9d565b61062b565b005b34801561023257600080fd5b5061024d60048036038101906102489190612c28565b61091d565b005b34801561025b57600080fd5b5061027660048036038101906102719190612c28565b610a1f565b005b34801561028457600080fd5b5061029f600480360381019061029a9190612973565b610a3f565b6040516102ac91906129e1565b60405180910390f35b3480156102c157600080fd5b506102dc60048036038101906102d79190612c7b565b610a51565b6040516102e99190612cb7565b60405180910390f35b3480156102fe57600080fd5b50610307610b0b565b005b34801561031557600080fd5b50610330600480360381019061032b9190612973565b610b1f565b005b34801561033e57600080fd5b50610347610c7e565b60405161035491906129e1565b60405180910390f35b34801561036957600080fd5b50610372610ca8565b60405161037f919061291b565b60405180910390f35b34801561039457600080fd5b506103af60048036038101906103aa9190612cfe565b610d3a565b005b3480156103bd57600080fd5b506103d860048036038101906103d39190612ddf565b610d50565b005b3480156103e657600080fd5b5061040160048036038101906103fc9190612973565b610d6d565b60405161040e919061291b565b60405180910390f35b610431600480360381019061042c9190612973565b610e80565b005b34801561043f57600080fd5b5061045a60048036038101906104559190612e62565b6111e4565b6040516104679190612870565b60405180910390f35b34801561047c57600080fd5b50610485611278565b604051610492919061306b565b60405180910390f35b3480156104a757600080fd5b506104c260048036038101906104bd9190612c7b565b611522565b005b3480156104d057600080fd5b506104eb60048036038101906104e69190612973565b6115a8565b6040516104fd9695949392919061308d565b60405180910390f35b6000634906490660e01b7bffffffffffffffffffffffffffffffffffffffffffffffffffffffff1916827bffffffffffffffffffffffffffffffffffffffffffffffffffffffff19161480610560575061055f82611721565b5b9050919050565b6060600080546105769061312b565b80601f01602080910402602001604051908101604052809291908181526020018280546105a29061312b565b80156105ef5780601f106105c4576101008083540402835291602001916105ef565b820191906000526020600020905b8154815290600101906020018083116105d257829003601f168201915b5050505050905090565b600061060482611803565b5061060e8261188b565b9050919050565b61062782826106226118c8565b6118d0565b5050565b6106336118e2565b600b60009054906101000a900473ffffffffffffffffffffffffffffffffffffffff1673ffffffffffffffffffffffffffffffffffffffff16636f77926b336040518263ffffffff1660e01b815260040161068e91906129e1565b600060405180830381865afa1580156106ab573d6000803e3d6000fd5b505050506040513d6000823e3d601f19601f820116820180604052508101906106d491906132b0565b60600151610717576040517f08c379a000000000000000000000000000000000000000000000000000000000815260040161070e90613345565b60405180910390fd5b6008600081548092919061072a90613394565b9190505550600060085490506040518060c001604052808281526020013373ffffffffffffffffffffffffffffffffffffffff16815260200185815260200184815260200183815260200160011515815250600960008381526020019081526020016000206000820151816000015560208201518160010160006101000a81548173ffffffffffffffffffffffffffffffffffffffff021916908373ffffffffffffffffffffffffffffffffffffffff16021790555060408201518160020190816107f59190613588565b50606082015181600301908161080b9190613588565b506080820151816004015560a08201518160050160006101000a81548160ff021916908315150217905550905050600a60009054906101000a900473ffffffffffffffffffffffffffffffffffffffff1673ffffffffffffffffffffffffffffffffffffffff16630f8ab50f84836040518363ffffffff1660e01b815260040161089692919061365a565b600060405180830381600087803b1580156108b057600080fd5b505af11580156108c4573d6000803e3d6000fd5b505050503373ffffffffffffffffffffffffffffffffffffffff16817f23fb658c1698b92f5fe511a079c17ecf7965cbc3f1b873328c67e2c3c0820f1f8460405161090f9190612cb7565b60405180910390a350505050565b600073ffffffffffffffffffffffffffffffffffffffff168273ffffffffffffffffffffffffffffffffffffffff160361098f5760006040517f64a0ae9200000000000000000000000000000000000000000000000000000000815260040161098691906129e1565b60405180910390fd5b60006109a3838361099e6118c8565b611969565b90508373ffffffffffffffffffffffffffffffffffffffff168173ffffffffffffffffffffffffffffffffffffffff1614610a19578382826040517f64283d7b000000000000000000000000000000000000000000000000000000008152600401610a109392919061368a565b60405180910390fd5b50505050565b610a3a83838360405180602001604052806000815250610d50565b505050565b6000610a4a82611803565b9050919050565b60008073ffffffffffffffffffffffffffffffffffffffff168273ffffffffffffffffffffffffffffffffffffffff1603610ac45760006040517f89c62b64000000000000000000000000000000000000000000000000000000008152600401610abb91906129e1565b60405180910390fd5b600360008373ffffffffffffffffffffffffffffffffffffffff1673ffffffffffffffffffffffffffffffffffffffff168152602001908152602001600020549050919050565b610b136118e2565b610b1d6000611b83565b565b60006009600083815260200190815260200160002090503373ffffffffffffffffffffffffffffffffffffffff168160010160009054906101000a900473ffffffffffffffffffffffffffffffffffffffff1673ffffffffffffffffffffffffffffffffffffffff1614610bc8576040517f08c379a0000000000000000000000000000000000000000000000000000000008152600401610bbf90613733565b60405180910390fd5b8060050160009054906101000a900460ff16610c19576040517f08c379a0000000000000000000000000000000000000000000000000000000008152600401610c109061379f565b60405180910390fd5b60008160050160006101000a81548160ff0219169083151502179055503373ffffffffffffffffffffffffffffffffffffffff16827ff2a4c441a25491a14345d458bf510ad958a0d95284304ca733d5719c40907b0560405160405180910390a35050565b6000600760009054906101000a900473ffffffffffffffffffffffffffffffffffffffff16905090565b606060018054610cb79061312b565b80601f0160208091040260200160405190810160405280929190818152602001828054610ce39061312b565b8015610d305780601f10610d0557610100808354040283529160200191610d30565b820191906000526020600020905b815481529060010190602001808311610d1357829003601f168201915b5050505050905090565b610d4c610d456118c8565b8383611c49565b5050565b610d5b84848461091d565b610d6784848484611db8565b50505050565b6060610d7882611803565b506000600660008481526020019081526020016000208054610d999061312b565b80601f0160208091040260200160405190810160405280929190818152602001828054610dc59061312b565b8015610e125780601f10610de757610100808354040283529160200191610e12565b820191906000526020600020905b815481529060010190602001808311610df557829003601f168201915b505050505090506000610e23611f6f565b90506000815103610e38578192505050610e7b565b600082511115610e6d578082604051602001610e559291906137fb565b60405160208183030381529060405292505050610e7b565b610e7684611f86565b925050505b919050565b60006009600083815260200190815260200160002090508060050160009054906101000a900460ff16610ee8576040517f08c379a0000000000000000000000000000000000000000000000000000000008152600401610edf9061386b565b60405180910390fd5b8060040154341015610f2f576040517f08c379a0000000000000000000000000000000000000000000000000000000008152600401610f26906138d7565b60405180910390fd5b600b60009054906101000a900473ffffffffffffffffffffffffffffffffffffffff1673ffffffffffffffffffffffffffffffffffffffff16636f77926b336040518263ffffffff1660e01b8152600401610f8a91906129e1565b600060405180830381865afa158015610fa7573d6000803e3d6000fd5b505050506040513d6000823e3d601f19601f82011682018060405250810190610fd091906132b0565b60600151611013576040517f08c379a000000000000000000000000000000000000000000000000000000000815260040161100a90613345565b60405180910390fd5b3373ffffffffffffffffffffffffffffffffffffffff16827f71284872bb4c088a81295dff2513729babbccfeda38a8d824bb1a73bcaab494e3460405161105a9190612cb7565b60405180910390a360008160010160009054906101000a900473ffffffffffffffffffffffffffffffffffffffff169050338260010160006101000a81548173ffffffffffffffffffffffffffffffffffffffff021916908373ffffffffffffffffffffffffffffffffffffffff16021790555060008260050160006101000a81548160ff0219169083151502179055506110f6813385611fef565b8073ffffffffffffffffffffffffffffffffffffffff166108fc349081150290604051600060405180830381858888f1935050505015801561113c573d6000803e3d6000fd5b503373ffffffffffffffffffffffffffffffffffffffff16837f290f2083cde0be163feaae46ca85fea0ffc5f20ab98f90fcc19040a6f9a1925584600401546040516111889190612cb7565b60405180910390a38073ffffffffffffffffffffffffffffffffffffffff16837fbe85bf3b0a1e335a22c461f84cf759dfe589ec1539caf4dce60f999d72dd8e23346040516111d79190612cb7565b60405180910390a3505050565b6000600560008473ffffffffffffffffffffffffffffffffffffffff1673ffffffffffffffffffffffffffffffffffffffff16815260200190815260200160002060008373ffffffffffffffffffffffffffffffffffffffff1673ffffffffffffffffffffffffffffffffffffffff16815260200190815260200160002060009054906101000a900460ff16905092915050565b60606000600854905060008167ffffffffffffffff81111561129d5761129c612a72565b5b6040519080825280602002602001820160405280156112d657816020015b6112c361276e565b8152602001906001900390816112bb5790505b509050600080600190505b838111611518576009600082815260200190815260200160002060050160009054906101000a900460ff161561150557600960008281526020019081526020016000206040518060c0016040529081600082015481526020016001820160009054906101000a900473ffffffffffffffffffffffffffffffffffffffff1673ffffffffffffffffffffffffffffffffffffffff1673ffffffffffffffffffffffffffffffffffffffff16815260200160028201805461139f9061312b565b80601f01602080910402602001604051908101604052809291908181526020018280546113cb9061312b565b80156114185780601f106113ed57610100808354040283529160200191611418565b820191906000526020600020905b8154815290600101906020018083116113fb57829003601f168201915b505050505081526020016003820180546114319061312b565b80601f016020809104026020016040519081016040528092919081815260200182805461145d9061312b565b80156114aa5780601f1061147f576101008083540402835291602001916114aa565b820191906000526020600020905b81548152906001019060200180831161148d57829003601f168201915b50505050508152602001600482015481526020016005820160009054906101000a900460ff1615151515815250508383815181106114eb576114ea6138f7565b5b6020026020010181905250818061150190613394565b9250505b808061151090613394565b9150506112e1565b5081935050505090565b61152a6118e2565b600073ffffffffffffffffffffffffffffffffffffffff168173ffffffffffffffffffffffffffffffffffffffff160361159c5760006040517f1e4fbdf700000000000000000000000000000000000000000000000000000000815260040161159391906129e1565b60405180910390fd5b6115a581611b83565b50565b60096020528060005260406000206000915090508060000154908060010160009054906101000a900473ffffffffffffffffffffffffffffffffffffffff16908060020180546115f79061312b565b80601f01602080910402602001604051908101604052809291908181526020018280546116239061312b565b80156116705780601f1061164557610100808354040283529160200191611670565b820191906000526020600020905b81548152906001019060200180831161165357829003601f168201915b5050505050908060030180546116859061312b565b80601f01602080910402602001604051908101604052809291908181526020018280546116b19061312b565b80156116fe5780601f106116d3576101008083540402835291602001916116fe565b820191906000526020600020905b8154815290600101906020018083116116e157829003601f168201915b5050505050908060040154908060050160009054906101000a900460ff16905086565b60007f80ac58cd000000000000000000000000000000000000000000000000000000007bffffffffffffffffffffffffffffffffffffffffffffffffffffffff1916827bffffffffffffffffffffffffffffffffffffffffffffffffffffffff191614806117ec57507f5b5e139f000000000000000000000000000000000000000000000000000000007bffffffffffffffffffffffffffffffffffffffffffffffffffffffff1916827bffffffffffffffffffffffffffffffffffffffffffffffffffffffff1916145b806117fc57506117fb8261215c565b5b9050919050565b60008061180f836121c6565b9050600073ffffffffffffffffffffffffffffffffffffffff168173ffffffffffffffffffffffffffffffffffffffff160361188257826040517f7e2732890000000000000000000000000000000000000000000000000000000081526004016118799190612cb7565b60405180910390fd5b80915050919050565b60006004600083815260200190815260200160002060009054906101000a900473ffffffffffffffffffffffffffffffffffffffff169050919050565b600033905090565b6118dd8383836001612203565b505050565b6118ea6118c8565b73ffffffffffffffffffffffffffffffffffffffff16611908610c7e565b73ffffffffffffffffffffffffffffffffffffffff16146119675761192b6118c8565b6040517f118cdaa700000000000000000000000000000000000000000000000000000000815260040161195e91906129e1565b60405180910390fd5b565b600080611975846121c6565b9050600073ffffffffffffffffffffffffffffffffffffffff168373ffffffffffffffffffffffffffffffffffffffff16146119b7576119b68184866123c8565b5b600073ffffffffffffffffffffffffffffffffffffffff168173ffffffffffffffffffffffffffffffffffffffff1614611a48576119f9600085600080612203565b6001600360008373ffffffffffffffffffffffffffffffffffffffff1673ffffffffffffffffffffffffffffffffffffffff168152602001908152602001600020600082825403925050819055505b600073ffffffffffffffffffffffffffffffffffffffff168573ffffffffffffffffffffffffffffffffffffffff1614611acb576001600360008773ffffffffffffffffffffffffffffffffffffffff1673ffffffffffffffffffffffffffffffffffffffff168152602001908152602001600020600082825401925050819055505b846002600086815260200190815260200160002060006101000a81548173ffffffffffffffffffffffffffffffffffffffff021916908373ffffffffffffffffffffffffffffffffffffffff160217905550838573ffffffffffffffffffffffffffffffffffffffff168273ffffffffffffffffffffffffffffffffffffffff167fddf252ad1be2c89b69c2b068fc378daa952ba7f163c4a11628f55a4df523b3ef60405160405180910390a4809150509392505050565b6000600760009054906101000a900473ffffffffffffffffffffffffffffffffffffffff16905081600760006101000a81548173ffffffffffffffffffffffffffffffffffffffff021916908373ffffffffffffffffffffffffffffffffffffffff1602179055508173ffffffffffffffffffffffffffffffffffffffff168173ffffffffffffffffffffffffffffffffffffffff167f8be0079c531659141344cd1fd0a4f28419497f9722a3daafe3b4186f6b6457e060405160405180910390a35050565b600073ffffffffffffffffffffffffffffffffffffffff168273ffffffffffffffffffffffffffffffffffffffff1603611cba57816040517f5b08ba18000000000000000000000000000000000000000000000000000000008152600401611cb191906129e1565b60405180910390fd5b80600560008573ffffffffffffffffffffffffffffffffffffffff1673ffffffffffffffffffffffffffffffffffffffff16815260200190815260200160002060008473ffffffffffffffffffffffffffffffffffffffff1673ffffffffffffffffffffffffffffffffffffffff16815260200190815260200160002060006101000a81548160ff0219169083151502179055508173ffffffffffffffffffffffffffffffffffffffff168373ffffffffffffffffffffffffffffffffffffffff167f17307eab39ab6107e8899845ad3d59bd9653f200f220920489ca2b5937696c3183604051611dab9190612870565b60405180910390a3505050565b60008373ffffffffffffffffffffffffffffffffffffffff163b1115611f69578273ffffffffffffffffffffffffffffffffffffffff1663150b7a02611dfc6118c8565b8685856040518563ffffffff1660e01b8152600401611e1e949392919061397b565b6020604051808303816000875af1925050508015611e5a57506040513d601f19601f82011682018060405250810190611e5791906139dc565b60015b611ede573d8060008114611e8a576040519150601f19603f3d011682016040523d82523d6000602084013e611e8f565b606091505b506000815103611ed657836040517f64a0ae92000000000000000000000000000000000000000000000000000000008152600401611ecd91906129e1565b60405180910390fd5b805181602001fd5b63150b7a0260e01b7bffffffffffffffffffffffffffffffffffffffffffffffffffffffff1916817bffffffffffffffffffffffffffffffffffffffffffffffffffffffff191614611f6757836040517f64a0ae92000000000000000000000000000000000000000000000000000000008152600401611f5e91906129e1565b60405180910390fd5b505b50505050565b606060405180602001604052806000815250905090565b6060611f9182611803565b506000611f9c611f6f565b90506000815111611fbc5760405180602001604052806000815250611fe7565b80611fc68461248c565b604051602001611fd79291906137fb565b6040516020818303038152906040525b915050919050565b600073ffffffffffffffffffffffffffffffffffffffff168273ffffffffffffffffffffffffffffffffffffffff16036120615760006040517f64a0ae9200000000000000000000000000000000000000000000000000000000815260040161205891906129e1565b60405180910390fd5b600061206f83836000611969565b9050600073ffffffffffffffffffffffffffffffffffffffff168173ffffffffffffffffffffffffffffffffffffffff16036120e257816040517f7e2732890000000000000000000000000000000000000000000000000000000081526004016120d99190612cb7565b60405180910390fd5b8373ffffffffffffffffffffffffffffffffffffffff168173ffffffffffffffffffffffffffffffffffffffff1614612156578382826040517f64283d7b00000000000000000000000000000000000000000000000000000000815260040161214d9392919061368a565b60405180910390fd5b50505050565b60007f01ffc9a7000000000000000000000000000000000000000000000000000000007bffffffffffffffffffffffffffffffffffffffffffffffffffffffff1916827bffffffffffffffffffffffffffffffffffffffffffffffffffffffff1916149050919050565b60006002600083815260200190815260200160002060009054906101000a900473ffffffffffffffffffffffffffffffffffffffff169050919050565b808061223c5750600073ffffffffffffffffffffffffffffffffffffffff168273ffffffffffffffffffffffffffffffffffffffff1614155b1561237057600061224c84611803565b9050600073ffffffffffffffffffffffffffffffffffffffff168373ffffffffffffffffffffffffffffffffffffffff16141580156122b757508273ffffffffffffffffffffffffffffffffffffffff168173ffffffffffffffffffffffffffffffffffffffff1614155b80156122ca57506122c881846111e4565b155b1561230c57826040517fa9fbf51f00000000000000000000000000000000000000000000000000000000815260040161230391906129e1565b60405180910390fd5b811561236e57838573ffffffffffffffffffffffffffffffffffffffff168273ffffffffffffffffffffffffffffffffffffffff167f8c5be1e5ebec7d5bd14f71427d1e84f3dd0314c0f7b2291e5b200ac8c7c3b92560405160405180910390a45b505b836004600085815260200190815260200160002060006101000a81548173ffffffffffffffffffffffffffffffffffffffff021916908373ffffffffffffffffffffffffffffffffffffffff16021790555050505050565b6123d383838361255a565b61248757600073ffffffffffffffffffffffffffffffffffffffff168373ffffffffffffffffffffffffffffffffffffffff160361244857806040517f7e27328900000000000000000000000000000000000000000000000000000000815260040161243f9190612cb7565b60405180910390fd5b81816040517f177e802f00000000000000000000000000000000000000000000000000000000815260040161247e929190613a09565b60405180910390fd5b505050565b60606000600161249b8461261b565b01905060008167ffffffffffffffff8111156124ba576124b9612a72565b5b6040519080825280601f01601f1916602001820160405280156124ec5781602001600182028036833780820191505090505b509050600082602001820190505b60011561254f578080600190039150507f3031323334353637383961626364656600000000000000000000000000000000600a86061a8153600a858161254357612542613a32565b5b049450600085036124fa575b819350505050919050565b60008073ffffffffffffffffffffffffffffffffffffffff168373ffffffffffffffffffffffffffffffffffffffff161415801561261257508273ffffffffffffffffffffffffffffffffffffffff168473ffffffffffffffffffffffffffffffffffffffff1614806125d357506125d284846111e4565b5b8061261157508273ffffffffffffffffffffffffffffffffffffffff166125f98361188b565b73ffffffffffffffffffffffffffffffffffffffff16145b5b90509392505050565b600080600090507a184f03e93ff9f4daa797ed6e38ed64bf6a1f0100000000000000008310612679577a184f03e93ff9f4daa797ed6e38ed64bf6a1f010000000000000000838161266f5761266e613a32565b5b0492506040810190505b6d04ee2d6d415b85acef810000000083106126b6576d04ee2d6d415b85acef810000000083816126ac576126ab613a32565b5b0492506020810190505b662386f26fc1000083106126e557662386f26fc1000083816126db576126da613a32565b5b0492506010810190505b6305f5e100831061270e576305f5e100838161270457612703613a32565b5b0492506008810190505b612710831061273357612710838161272957612728613a32565b5b0492506004810190505b60648310612756576064838161274c5761274b613a32565b5b0492506002810190505b600a8310612765576001810190505b80915050919050565b6040518060c0016040528060008152602001600073ffffffffffffffffffffffffffffffffffffffff1681526020016060815260200160608152602001600081526020016000151581525090565b6000604051905090565b600080fd5b600080fd5b60007fffffffff0000000000000000000000000000000000000000000000000000000082169050919050565b612805816127d0565b811461281057600080fd5b50565b600081359050612822816127fc565b92915050565b60006020828403121561283e5761283d6127c6565b5b600061284c84828501612813565b91505092915050565b60008115159050919050565b61286a81612855565b82525050565b60006020820190506128856000830184612861565b92915050565b600081519050919050565b600082825260208201905092915050565b60005b838110156128c55780820151818401526020810190506128aa565b60008484015250505050565b6000601f19601f8301169050919050565b60006128ed8261288b565b6128f78185612896565b93506129078185602086016128a7565b612910816128d1565b840191505092915050565b6000602082019050818103600083015261293581846128e2565b905092915050565b6000819050919050565b6129508161293d565b811461295b57600080fd5b50565b60008135905061296d81612947565b92915050565b600060208284031215612989576129886127c6565b5b60006129978482850161295e565b91505092915050565b600073ffffffffffffffffffffffffffffffffffffffff82169050919050565b60006129cb826129a0565b9050919050565b6129db816129c0565b82525050565b60006020820190506129f660008301846129d2565b92915050565b612a05816129c0565b8114612a1057600080fd5b50565b600081359050612a22816129fc565b92915050565b60008060408385031215612a3f57612a3e6127c6565b5b6000612a4d85828601612a13565b9250506020612a5e8582860161295e565b9150509250929050565b600080fd5b600080fd5b7f4e487b7100000000000000000000000000000000000000000000000000000000600052604160045260246000fd5b612aaa826128d1565b810181811067ffffffffffffffff82111715612ac957612ac8612a72565b5b80604052505050565b6000612adc6127bc565b9050612ae88282612aa1565b919050565b600067ffffffffffffffff821115612b0857612b07612a72565b5b612b11826128d1565b9050602081019050919050565b82818337600083830152505050565b6000612b40612b3b84612aed565b612ad2565b905082815260208101848484011115612b5c57612b5b612a6d565b5b612b67848285612b1e565b509392505050565b600082601f830112612b8457612b83612a68565b5b8135612b94848260208601612b2d565b91505092915050565b600080600060608486031215612bb657612bb56127c6565b5b600084013567ffffffffffffffff811115612bd457612bd36127cb565b5b612be086828701612b6f565b935050602084013567ffffffffffffffff811115612c0157612c006127cb565b5b612c0d86828701612b6f565b9250506040612c1e8682870161295e565b9150509250925092565b600080600060608486031215612c4157612c406127c6565b5b6000612c4f86828701612a13565b9350506020612c6086828701612a13565b9250506040612c718682870161295e565b9150509250925092565b600060208284031215612c9157612c906127c6565b5b6000612c9f84828501612a13565b91505092915050565b612cb18161293d565b82525050565b6000602082019050612ccc6000830184612ca8565b92915050565b612cdb81612855565b8114612ce657600080fd5b50565b600081359050612cf881612cd2565b92915050565b60008060408385031215612d1557612d146127c6565b5b6000612d2385828601612a13565b9250506020612d3485828601612ce9565b9150509250929050565b600067ffffffffffffffff821115612d5957612d58612a72565b5b612d62826128d1565b9050602081019050919050565b6000612d82612d7d84612d3e565b612ad2565b905082815260208101848484011115612d9e57612d9d612a6d565b5b612da9848285612b1e565b509392505050565b600082601f830112612dc657612dc5612a68565b5b8135612dd6848260208601612d6f565b91505092915050565b60008060008060808587031215612df957612df86127c6565b5b6000612e0787828801612a13565b9450506020612e1887828801612a13565b9350506040612e298782880161295e565b925050606085013567ffffffffffffffff811115612e4a57612e496127cb565b5b612e5687828801612db1565b91505092959194509250565b60008060408385031215612e7957612e786127c6565b5b6000612e8785828601612a13565b9250506020612e9885828601612a13565b9150509250929050565b600081519050919050565b600082825260208201905092915050565b6000819050602082019050919050565b612ed78161293d565b82525050565b612ee6816129c0565b82525050565b600082825260208201905092915050565b6000612f088261288b565b612f128185612eec565b9350612f228185602086016128a7565b612f2b816128d1565b840191505092915050565b612f3f81612855565b82525050565b600060c083016000830151612f5d6000860182612ece565b506020830151612f706020860182612edd565b5060408301518482036040860152612f888282612efd565b91505060608301518482036060860152612fa28282612efd565b9150506080830151612fb76080860182612ece565b5060a0830151612fca60a0860182612f36565b508091505092915050565b6000612fe18383612f45565b905092915050565b6000602082019050919050565b600061300182612ea2565b61300b8185612ead565b93508360208202850161301d85612ebe565b8060005b85811015613059578484038952815161303a8582612fd5565b945061304583612fe9565b925060208a01995050600181019050613021565b50829750879550505050505092915050565b600060208201905081810360008301526130858184612ff6565b905092915050565b600060c0820190506130a26000830189612ca8565b6130af60208301886129d2565b81810360408301526130c181876128e2565b905081810360608301526130d581866128e2565b90506130e46080830185612ca8565b6130f160a0830184612861565b979650505050505050565b7f4e487b7100000000000000000000000000000000000000000000000000000000600052602260045260246000fd5b6000600282049050600182168061314357607f821691505b602082108103613156576131556130fc565b5b50919050565b600080fd5b600080fd5b600081519050613175816129fc565b92915050565b600061318e61318984612aed565b612ad2565b9050828152602081018484840111156131aa576131a9612a6d565b5b6131b58482856128a7565b509392505050565b600082601f8301126131d2576131d1612a68565b5b81516131e284826020860161317b565b91505092915050565b6000815190506131fa81612cd2565b92915050565b6000608082840312156132165761321561315c565b5b6132206080612ad2565b9050600061323084828501613166565b600083015250602082015167ffffffffffffffff81111561325457613253613161565b5b613260848285016131bd565b602083015250604082015167ffffffffffffffff81111561328457613283613161565b5b613290848285016131bd565b60408301525060606132a4848285016131eb565b60608301525092915050565b6000602082840312156132c6576132c56127c6565b5b600082015167ffffffffffffffff8111156132e4576132e36127cb565b5b6132f084828501613200565b91505092915050565b7f55736572206e6f74207265676973746572656400000000000000000000000000600082015250565b600061332f601383612896565b915061333a826132f9565b602082019050919050565b6000602082019050818103600083015261335e81613322565b9050919050565b7f4e487b7100000000000000000000000000000000000000000000000000000000600052601160045260246000fd5b600061339f8261293d565b91507fffffffffffffffffffffffffffffffffffffffffffffffffffffffffffffffff82036133d1576133d0613365565b5b600182019050919050565b60008190508160005260206000209050919050565b60006020601f8301049050919050565b600082821b905092915050565b60006008830261343e7fffffffffffffffffffffffffffffffffffffffffffffffffffffffffffffffff82613401565b6134488683613401565b95508019841693508086168417925050509392505050565b6000819050919050565b600061348561348061347b8461293d565b613460565b61293d565b9050919050565b6000819050919050565b61349f8361346a565b6134b36134ab8261348c565b84845461340e565b825550505050565b600090565b6134c86134bb565b6134d3818484613496565b505050565b5b818110156134f7576134ec6000826134c0565b6001810190506134d9565b5050565b601f82111561353c5761350d816133dc565b613516846133f1565b81016020851015613525578190505b613539613531856133f1565b8301826134d8565b50505b505050565b600082821c905092915050565b600061355f60001984600802613541565b1980831691505092915050565b6000613578838361354e565b9150826002028217905092915050565b6135918261288b565b67ffffffffffffffff8111156135aa576135a9612a72565b5b6135b4825461312b565b6135bf8282856134fb565b600060209050601f8311600181146135f257600084156135e0578287015190505b6135ea858261356c565b865550613652565b601f198416613600866133dc565b60005b8281101561362857848901518255600182019150602085019450602081019050613603565b868310156136455784890151613641601f89168261354e565b8355505b6001600288020188555050505b505050505050565b6000604082019050818103600083015261367481856128e2565b90506136836020830184612ca8565b9392505050565b600060608201905061369f60008301866129d2565b6136ac6020830185612ca8565b6136b960408301846129d2565b949350505050565b7f4f6e6c7920746865206f776e65722063616e2064656c6973742074686520707260008201527f6f70657274790000000000000000000000000000000000000000000000000000602082015250565b600061371d602683612896565b9150613728826136c1565b604082019050919050565b6000602082019050818103600083015261374c81613710565b9050919050565b7f50726f7065727479206973206e6f74206c697374656400000000000000000000600082015250565b6000613789601683612896565b915061379482613753565b602082019050919050565b600060208201905081810360008301526137b88161377c565b9050919050565b600081905092915050565b60006137d58261288b565b6137df81856137bf565b93506137ef8185602086016128a7565b80840191505092915050565b600061380782856137ca565b915061381382846137ca565b91508190509392505050565b7f50726f7065727479206973206e6f74206c697374656420666f722073616c6500600082015250565b6000613855601f83612896565b91506138608261381f565b602082019050919050565b6000602082019050818103600083015261388481613848565b9050919050565b7f496e73756666696369656e74207061796d656e74000000000000000000000000600082015250565b60006138c1601483612896565b91506138cc8261388b565b602082019050919050565b600060208201905081810360008301526138f0816138b4565b9050919050565b7f4e487b7100000000000000000000000000000000000000000000000000000000600052603260045260246000fd5b600081519050919050565b600082825260208201905092915050565b600061394d82613926565b6139578185613931565b93506139678185602086016128a7565b613970816128d1565b840191505092915050565b600060808201905061399060008301876129d2565b61399d60208301866129d2565b6139aa6040830185612ca8565b81810360608301526139bc8184613942565b905095945050505050565b6000815190506139d6816127fc565b92915050565b6000602082840312156139f2576139f16127c6565b5b6000613a00848285016139c7565b91505092915050565b6000604082019050613a1e60008301856129d2565b613a2b6020830184612ca8565b9392505050565b7f4e487b7100000000000000000000000000000000000000000000000000000000600052601260045260246000fdfea26469706673582212202d7ef4e28b1122043e0afce5668142b70806ab688dbd9fa06fbced684224ad0564736f6c63430008180033",
  "linkReferences": {},
  "deployedLinkReferences": {}
}